:100000000C941E030C9446030C9446030C94460374
:100010000C9446030C9446030C9446030C9446033C
:100020000C9446030C9446030C9446030C9446032C
:100030000C9446030C9446030C9446030C9446031C
:100040000C949D180C9446030C946B180C94451852
:100050000C9446030C9446030C9446030C944603FC
:100060000C94E7180C9446034261636B004F66667C
:10007000004F6E004578697400426C7565204C65D0
:1000800064204F4500426C7565204C6564004772E2
:1000900065656E204C656400526564204C656400A3
:1000A0004D61696E204D656E75002A25732A00200A
:1000B00025252D25642E256473200025640000006D
:1000C0000000003E5B4F5B3E3E6B4F6B3E1C3E7C38
:1000D0003E1C183C7E3C181C577D571C1C5E7F5EE6
:1000E0001C00183C1800FFE7C3E7FF0018241800A5
:1000F000FFE7DBE7FF30483A060E2629792926403C
:100100007F050507407F05253F5A3CE73C5A7F3E67
:100110001C1C08081C1C3E7F14227F22145F5F00F9
:100120005F5F06097F017F006689956A6060606095
:100130006094A2FFA29408047E040810207E201080
:1001400008082A1C08081C2A08081E101010100C89
:100150001E0C1E0C30383E3830060E3E0E060000D7
:1001600000000000005F00000007000700147F147B
:100170007F14242A7F2A12231308646236495620EA
:10018000500008070300001C2241000041221C000F
:100190002A1C7F1C2A08083E0808008070300008CE
:1001A00008080808000060600020100804023E51A2
:1001B00049453E00427F4000724949494621414934
:1001C0004D331814127F1027454545393C4A49499B
:1001D0003141211109073649494936464949291E05
:1001E00000001400000040340000000814224114F4
:1001F00014141414004122140802015909063E4146
:100200005D594E7C1211127C7F494949363E41416D
:1002100041227F4141413E7F494949417F090909C6
:10022000013E414151737F0808087F00417F410032
:100230002040413F017F081422417F404040407FE1
:10024000021C027F7F0408107F3E4141413E7F092E
:100250000909063E4151215E7F091929462649496F
:10026000493203017F01033F4040403F1F204020AF
:100270001F3F4038403F63140814630304780403AD
:100280006159494D43007F4141410204081020005B
:100290004141417F040201020440404040400003CC
:1002A00007080020545478407F2844443838444498
:1002B0004428384444287F385454541800087E0990
:1002C0000218A4A49C787F0804047800447D4000B0
:1002D0002040403D007F1028440000417F40007CCA
:1002E000047804787C080404783844444438FC18C2
:1002F00024241818242418FC7C08040408485454A6
:10030000542404043F44243C4040207C1C204020D2
:100310001C3C4030403C44281028444C9090907C39
:100320004464544C4400083641000000770000004B
:100330004136080002010204023C2623263C1EA18D
:10034000A161123A4040207A3854545559215555EC
:10035000794122545478422155547840205455799B
:10036000400C1E527212395555555939545454592E
:1003700039555454580000457C410002457D4200E7
:1003800001457C407D1211127DF0282528F07C5417
:100390005545002054547C547C0A097F4932494910
:1003A00049323A4444443A324A4848303A41412179
:1003B0007A3A42402078009DA0A07D3D4242423DD5
:1003C0003D4040403D3C24FF2424487E4943662B69
:1003D0002FFC2F2BFF0929F620C0887E090320540B
:1003E0005479410000447D413048484A3238404009
:1003F000227A007A0A0A727D0D19317D2629292F69
:1004000028262929292630484D4020380808080880
:1004100008080808382F10C8ACBA2F102834FA0082
:10042000007B000008142A142222142A1408550004
:10043000550055AA55AA55AAFF55FF55FF000000C3
:10044000FF00101010FF00141414FF001010FF0024
:10045000FF1010F010F0141414FC001414F700FF37
:100460000000FF00FF1414F404FC141417101F10F4
:10047000101F101F1414141F00101010F0000000A3
:10048000001F101010101F10101010F010000000AE
:10049000FF101010101010101010FF10000000FFBF
:1004A000140000FF00FF00001F10170000FC04F400
:1004B00014141710171414F404F40000FF00F714B8
:1004C000141414141414F700F7141414171410103F
:1004D0001F101F141414F4141010F010F000001F5B
:1004E000101F0000001F14000000FC140000F0109A
:1004F000F01010FF10FF141414FF141010101F0040
:10050000000000F010FFFFFFFFFFF0F0F0F0F0FF41
:10051000FFFF0000000000FFFF0F0F0F0F0F384418
:10052000443844FC4A4A4A347E02020606027E02ED
:100530007E0263554941633844443C04407E201E9A
:100540002006027E020299A5E7A5991C2A492A1CC9
:100550004C7201724C304A4D4D303048784830BCB6
:10056000625A463D3E494949007E0101017E2A2AE0
:100570002A2A2A44445F444440514A444040444A61
:1005800051400000FF0103E080FF000008086B6B92
:10059000083612362436060F090F06000018180018
:1005A00000001010003040FF0101001F01011E007B
:1005B000191D1712003C3C3C3C00000000000000EC
:1005C000000023002600290000000000240027006E
:1005D0002A000102040810204080010204081020B3
:1005E00001020408102000000000250028002B0054
:1005F00004040404040404040202020202020303C9
:10060000030303034A757374206120636F756E746E
:1006100065720025252E2564730025252564732524
:100620002525647300000000080002010000030497
:1006300007000000000000000000371A11241FBE50
:10064000CFEFD8E0DEBFCDBF13E0A0E0B1E0EAEC31
:10065000F8E402C005900D92A23AB107D9F725E05F
:10066000A2EAB3E001C01D92AB33B207E1F713E099
:10067000CEE1D3E004C02197FE010E940323CD31D7
:10068000D107C9F70E94A21A0C9463240C940000AD
:100690000895AF92BF92CF92DF92EF92FF920F93A5
:1006A0001F93CF93DF936C017B018B01040F151F08
:1006B000EB015E01AE18BF08C017D10759F0699170
:1006C000D601ED91FC910190F081E02DC6010995D4
:1006D000892B79F7C501DF91CF911F910F91FF9081
:1006E000EF90DF90CF90BF90AF900895FC01538DB5
:1006F000448D252F30E0842F90E0821B930B5417FC
:1007000010F0CF96089501970895FC01918D828D88
:10071000981761F0A28DAE0FBF2FB11D5D968C9121
:10072000928D9F5F9F73928F90E008958FEF9FEF60
:100730000895FC01918D828D981731F0828DE80F1C
:10074000F11D858D90E008958FEF9FEF0895FC01D6
:10075000918D228D892F90E0805C9F4F821B9109A3
:100760008F739927089585E294E00E94A70321E002
:10077000892B09F420E0822F089580E090E0892BF6
:1007800029F00E94B30381110C9400000895FC012C
:10079000A48DA80FB92FB11DA35ABF4F2C91848DE2
:1007A00090E001968F739927848FA689B7892C933F
:1007B000A089B1898C91837080648C93938D848D92
:1007C000981306C00288F389E02D80818F7D808395
:1007D0000895EF92FF920F931F93CF93DF93EC0155
:1007E00081E0888F9B8D8C8D98131AC0E889F989D8
:1007F000808185FF15C09FB7F894EE89FF896083DB
:10080000E889F98980818370806480839FBF81E05B
:1008100090E0DF91CF911F910F91FF90EF9008959D
:10082000F62E0B8D10E00F5F1F4F0F731127E02E78
:100830008C8D8E110CC00FB607FCFACFE889F989B0
:10084000808185FFF5CFCE010E94C703F1CFEB8DEC
:10085000EC0FFD2FF11DE35AFF4FF0829FB7F89484
:100860000B8FEA89FB8980818062CFCFCF93DF93A2
:10087000EC01888D8823B9F0AA89BB89E889F989B8
:100880008C9185FD03C0808186FD0DC00FB607FCED
:10089000F7CF8C9185FFF2CF808185FFEDCFCE0120
:1008A0000E94C703E9CFDF91CF910895833081F093
:1008B00028F4813099F08230A9F008958730A9F0AA
:1008C0008830C9F08430B1F4809180008F7D03C0FE
:1008D000809180008F7780938000089584B58F7712
:1008E00084BD089584B58F7DFBCF8091B0008F7754
:1008F0008093B00008958091B0008F7DF9CFCF93A1
:10090000DF93282F30E0F901EB5DF94F8491F90175
:10091000EE52FA4FD491F901E051FA4FC491CC2331
:10092000A1F081110E945604EC2FF0E0EE0FFF1FA2
:10093000E254FA4FA591B491EC91ED2381E090E05F
:1009400009F480E0DF91CF91089580E090E0FACF44
:100950001F93CF93DF93282F30E0F901EB5DF94F20
:100960008491F901EE52FA4FD491F901E051FA4F16
:10097000C491CC23A9F0162F81110E945604EC2FAC
:10098000F0E0EE0FFF1FEA51FA4FA591B4918FB737
:10099000F894EC91111108C0D095DE23DC938FBF41
:1009A000DF91CF911F910895DE2BF8CFCF93DF9386
:1009B00090E0FC01EE52FA4F249180519A4FFC01D5
:1009C00084918823C9F090E0880F991FFC01E853B7
:1009D000FA4FA591B491FC01EA51FA4FC591D49117
:1009E00061110DC09FB7F8948C91209582238C9350
:1009F0008881282328839FBFDF91CF91089562309B
:100A000051F49FB7F8943C91822F809583238C9367
:100A1000E8812E2BEFCF8FB7F894EC912E2B2C93EF
:100A20008FBFEACFCF93DF93EC0161E08AE00E94B1
:100A3000D604209731F460E08AE0DF91CF910C94E6
:100A4000A804CF3FD10511F461E0F6CFEFE2F6E064
:100A5000E491E33029F140F4E130B1F0E230D9F033
:100A6000C038D1058CF7E7CFE73021F1E83051F1FC
:100A7000E430B1F780918000806280938000D09351
:100A80008B00C0938A0004C084B5806884BDC7BD54
:100A9000DF91CF91089584B5806284BDC8BDF8CF41
:100AA00080918000806880938000D0938900C093FB
:100AB0008800EECF8091B00080688093B000C09332
:100AC000B300E6CF8091B00080628093B000C09305
:100AD000B400DECF3FB7F89480911B0490911C04C2
:100AE000A0911D04B0911E0426B5A89B05C02F3F00
:100AF00019F00196A11DB11D3FBFBA2FA92F982F44
:100B00008827BC01CD01620F711D811D911D42E03E
:100B1000660F771F881F991F4A95D1F708958F9206
:100B20009F92AF92BF92CF92DF92EF92FF924B01D2
:100B30005C010E946A056B017C010E946A056C19C8
:100B40007D098E099F09683E734081059105A8F3D0
:100B500021E0821A9108A108B10888EEC80E83E04E
:100B6000D81EE11CF11C81149104A104B10429F7E1
:100B7000FF90EF90DF90CF90BF90AF909F908F90BD
:100B800008952FB7F894609117047091180480911C
:100B9000190490911A042FBF08952091CC03260FB9
:100BA0003327331F21323105ECF42091F003FC018F
:100BB00090E080E0243069F082E00895A091CC03B9
:100BC0002191AC0144555C4FA40FB52FB11D2C935E
:100BD0000196861798F38091CC03680F6093CC033D
:100BE00080E0089581E008958FEF9FEF08958FEFE3
:100BF0009FEF08958091A50390E0919581959109CB
:100C00000895CF93DF93CB01EA01642F0E94CD05B5
:100C1000CE01DF91CF910895CF93DF931F92CDB78F
:100C2000DEB7698361E0CE0101960E94CD0581E0C7
:100C300090E00F90DF91CF910895CF92DF92EF92E5
:100C4000FF920F931F93CF93DF93EC0188810E9453
:100C50007F042A812817190649F510E08B81882323
:100C600009F479C00E94C105CD80DE80EF80F88450
:100C70006C197D098E099F09CB88DC88ED88FE8878
:100C8000C616D706E806F90608F065C01B8281E0A3
:100C90008C8313E0EF89F88D309709F45EC02985C5
:100CA0003A854D85612F8881099557C00E94C105FD
:100CB0006B017C010E94C1056C197D098E099F0999
:100CC0000F85188929893A89601771078207930768
:100CD00038F461E070E080E090E00E948F05EACF98
:100CE00088810E947F042A812817190609F4B5CF4C
:100CF00011E021272A838981813059F18E8590E086
:100D00002817190681F40E94C105CD80DE80EF808E
:100D1000F8846C197D098E099F0969877A878B870A
:100D20009C871B839ACF0E94C1056D837E838F832E
:100D3000988719861A861B861C868C81882329F041
:100D40001D871C821B8212E089CF8D858F5F8D8766
:100D5000F9CF11E083CF11119DCF812FDF91CF917A
:100D60001F910F91FF90EF90DF90CF900895FC01BD
:100D7000838D8F3F51F4848D8F3F39F46EBD000019
:100D80000DB407FEFDCF8EB5089528E030E090E861
:100D9000A6A1B7A14C9181A5809584238C93A4A191
:100DA000B5A180A5462F492371F04C91842B8C93DB
:100DB000A6A1B7A18C9141A5842B8C939695215027
:100DC000310931F708954C9180958423F0CF1F931A
:100DD000CF93DF93EC01162F60E08D8D0E94A80465
:100DE0008F8D18161CF460E00E94A804612FCE01BC
:100DF0000E94B7068F8D181634F461E0DF91CF9111
:100E00001F910C94A804DF91CF911F9108950F9327
:100E10001F93CF938C01C62F67FDCFE7F801C0A3C6
:100E200061E2C8010E94E7066C2F6068C8010E9459
:100E3000E70660E2C801CF911F910F910C94E7067D
:100E40001F93CF93DF93EC018E8D18166CF460E046
:100E50000E94A80464EF71E080E090E00E948F059A
:100E600061E08E8D0E94A80419A1183008F017E0E7
:100E700019A361E2CE010E94E706612F6061CE01F5
:100E80000E94E70660E2CE010E94E70668A1CE015B
:100E90000E94070760E2CE010E94E7066CE0CE01E7
:100EA000DF91CF911F910C94E706CF92DF92EF92E2
:100EB000FF920F931F93CF93DF93EC019AA1992395
:100EC00029F08BA18F5F8917D8F58BA381E2E82EDB
:100ED00081E0F82E10E0612F6064CE010E94E706E9
:100EE00060E8CE010E94E70661E08D8D0E94A804B3
:100EF0008F8D18161CF460E00E94A804670104E5B9
:100F0000F60161916F01CE010E94B7060150C1F751
:100F10008F8D18161CF461E00E94A8041F5FF4E591
:100F2000EF0EF11C1630B9F660E4CE01DF91CF91DF
:100F30001F910F91FF90EF90DF90CF900C94E706F8
:100F40001BA2CE010E942007C1CFFC01D90177FD71
:100F50003CC08085918568177907BCF557FD35C081
:100F6000828593854817590784F58689823071F107
:100F70008330C9F1813031F48FE290E0861B970B0A
:100F8000BA01AC016435710500F540335105E8F450
:100F9000CA0123E0959587952A95E1F724E5289FD6
:100FA000F001299FF00D1124E60FF71FEF5DFE4FB2
:100FB00030814770552781E090E001C0880F4A9545
:100FC000EAF7AB2BB9F0832B8083089583E590E09B
:100FD0009C01261B370BB9018FE290E09C01241B7A
:100FE000350BA901CFCF83E590E0841B950BAB01B6
:100FF000BC01C8CF80958323E7CF0895FC016370BF
:10100000668B8481958126813781613039F0633028
:1010100029F0918780873387228708953187208739
:101020009387828708952F923F924F925F926F929B
:101030007F928F929F92AF92BF92CF92DF92EF9268
:10104000FF920F931F93CF93DF93CDB7DEB76A97CD
:101050000FB6F894DEBF0FBECDBF9A8F898F7A830B
:1010600069834A01D22E18870F833701BC2CDC011B
:1010700059962D913C915A972115310509F015C1CA
:1010800018968D919C911997681779070CF0D7C124
:101090001A968D919C91481759070CF0D0C14C2C91
:1010A000512CB6E0CB9E600D711D11247C876B879F
:1010B000161617060CF0C3C1EA2DF0E0FA87E9878F
:1010C00093E0EE0FFF1F9A95E1F7F88BEF87CF01C2
:1010D000840F951F181619060CF0B1C1A98DBA8D91
:1010E00058968C91811104C0BFEABD1508F4D394C1
:1010F000A98DBA8DED91FC9111970284F385E02DB5
:10110000CD010995B5E0DB9EC0011124E981FA818A
:10111000FC83EB83312C212C9C0122543F4F388FD0
:101120002F8B4A2D50E05E8B4D8BEF89F88DE20DB1
:10113000F31D44919E828D82D12CC12C69817A81CC
:10114000620D731D7A8B698B842F90E09C8B8B8B47
:10115000E98DFA8DA081B18140FF82C0F1E0BF121C
:101160006FC0AF126DC01C96ED91FC912F81388538
:10117000A4014C0D5D1D69897A89898D9A8D099527
:10118000EB89FC89F595E7954E2F5FEFC51AD50AD7
:101190006D817E818D899E89680F791F7E836D8325
:1011A00098E0C916D10481F6AFEF2A1A3A0AEB810A
:1011B000FC81E40DF51DFC83EB83F5E02F16310473
:1011C00009F0B3CF2F81388526153705B9F0A98DE1
:1011D000BA8DED91FC91B1E0BB1257C0AB1255C076
:1011E00069817A816B5F7F4F0088F189E02D8301EF
:1011F00028E030E0A401898D9A8D0995A98DBA8DDA
:10120000ED91FC9111970688F789E02DCD016A9642
:101210000FB6F894DEBF0FBECDBFDF91CF911F9107
:101220000F91FF90EF90DF90CF90BF90AF909F9085
:101230008F907F906F905F904F903F902F90099488
:101240001E96ED91FC91EF80F88409851A85920134
:101250004D815E816B817C81898D9A8D099590CFBE
:101260002F8138852615370509F48ACF31E0B3126E
:1012700007C0A31205C01C96ED91FC91930178CF95
:101280001E96ED91FC917301E0CF6B857C8564190E
:1012900075090684F785E02D73010F851889920181
:1012A000A401898D9A8D0995A9CFF901349694915D
:1012B000329745915491D91AB7E0DB9E400D511DEC
:1012C0001124F901259134913C8B2B8BFA01259047
:1012D0003490FA013296749031963491398B32966B
:1012E00064903196449041E04C1518F04A1508F08E
:1012F0007FC0662D062C000C770B7C836B83842DBE
:10130000042C000C990B9E838D83A98DBA8DED91D1
:10131000FC9111970284F385E02DCD010995512CA4
:10132000D12CC12CEA2DF0E0FA87E9872B2D30E093
:101330003C872B87A401440D511D47FC5A95588FBB
:101340004F8B69817A81660D711D67FC7A957E8766
:101350006D877989C71608F051CF2C2D30E04D816B
:101360005E81420F531FA985BA854A9FC0014B9FDA
:10137000900D5A9F900D1124FC01E80DF91DF88B7A
:10138000EF87852D612C4F89588D420F531F5E8B3F
:101390004D8B671408F050C044244394480E877066
:1013A00041F4C1010196EB89FC89E20DF31DD49053
:1013B0001C01D7FE19C0A98DBA8DED91FC91662D47
:1013C00070E0B1E0BB1219C0AB1217C02D853E858D
:1013D000620F731F0484F585E02D2F8138854D89B8
:1013E0005E89898D9A8D0995DD0C6394842DD1CF0A
:1013F0001E821D821C821B8288CF4B815C81640F00
:10140000751FAB85BC856A9FC0016B9F900D7A9F4D
:10141000900D112469817A81680F791F0684F78500
:10142000E02DEF80F88409851A859D014F85588944
:10143000898D9A8D0995D8CF570CC3948ACF6A9617
:101440000FB6F894DEBF0FBECDBFDF91CF911F91D5
:101450000F91FF90EF90DF90CF90BF90AF909F9053
:101460008F907F906F905F904F903F902F90089556
:101470008F929F92AF92CF92EF92FF920F931F9312
:10148000CF93DF93EC01262F898D9A8D009709F079
:1014900051C06A30D1F41D861C868D8948E0849F36
:1014A000900111248E859F85820F931F9F878E87C1
:1014B00081E090E0DF91CF911F910F91FF90EF902D
:1014C000CF90AF909F908F9008956D3089F3CC8826
:1014D000AD888F898823C1F08C859D8536E0C39EB9
:1014E000800D911D1124488559854817590764F4CA
:1014F0004E855F851D861C8638E0A39EC0011124A1
:10150000840F951F9F878E87EA88FB880889198931
:101510004E855F856C857D85CE010E9413082C89E0
:101520008C859D8546E0249F800D911D11249D870B
:101530008C87BECF6A3069F41D861C86FC01389604
:10154000E4912D898E859F85E29F800D911D112448
:10155000ADCF6D3009F4ACCFFC01349634916317F4
:1015600008F4A6CF3296E491E61708F4A1CFFC0167
:10157000329685909490462F431B342F47E0349F3A
:10158000800C911C1124F401329634913196E4912F
:101590003323A9F1EE2399F1CC88F4013596E49137
:1015A000AD884F89442301F10E2E000CFF0BE30F91
:1015B000F11DCE9EA001CF9E500D11246C857D851E
:1015C000460F571F68857985641775076CF44E853B
:1015D0005F851D861C86FC013896E491AE9E400D09
:1015E000511D11245F874E87EA88FB880889198975
:1015F0004E855F856C857D85CE010E941308F401C0
:101600003496E4912C898C859D85E29F800D911DF7
:1016100011248DCF6F927F928F929F92AF92BF9243
:10162000CF92DF92EF92FF920F931F93CF93DF93AE
:10163000EC016B015A0139014801E881F98102840A
:10164000F385E02D0995E881F9810288F389E02D81
:1016500087019301A501B601CE010995A501480DA9
:10166000591D41505109E881F9810288F389E02D23
:101670009301B601CE010995E881F9810088F189CD
:10168000E02D9401A501B601CE010995C60CD71C29
:10169000B60161507109E881F9810088F189E02D76
:1016A0009401A501CE010995E881F9810688F789A1
:1016B000E02DCE01DF91CF911F910F91FF90EF9020
:1016C000DF90CF90BF90AF909F908F907F906F9062
:1016D00009942F923F924F925F926F927F928F92D6
:1016E0009F92AF92BF92CF92DF92EF92FF920F93B1
:1016F0001F93CF93DF93CDB7DEB72D970FB6F89436
:10170000DEBF0FBECDBF5C011B0158874F833D87F5
:101710002C870987FC82EB82360181E090E06C0126
:10172000C21AD30AC9019195819591099C01220F92
:10173000331F3A832983C70101969E838D83F12C41
:10174000E12C44244394512CDA011196BB87AA87DB
:101750002C853D85E216F3060CF070C08C849D84C8
:10176000D7FC0BC0490131E0831A910889819A8125
:1017700002969A838983C80ED91E9FEFE91AF90A47
:10178000A2E04A0E511CC40CD51C8E149F0444F4D4
:101790002C853D8528153905F1F49D868C86D8CF9A
:1017A0009401220F331F4F81588548195909D501DB
:1017B000ED91FC91B9858D819E81280F391F00889C
:1017C000F189E02D8301B101B13009F56E0D7F1D66
:1017D000C5010995DDCF9985913019F59201225007
:1017E0003109AB81BC812A0F3B1F6C857D85620D61
:1017F000731DD501ED91FC910088F189E02D8301E5
:101800004A855B854E195F09C5010995C6CF6E19DA
:101810007F09C5010995AC85BD85A815B90509F4F1
:10182000BCCF9201225031098B819C81280F391F36
:10183000B101AC85BD856A1B7B0BDBCF2D960FB646
:10184000F894DEBF0FBECDBFDF91CF911F910F91F6
:10185000FF90EF90DF90CF90BF90AF909F908F90D0
:101860007F906F905F904F903F902F9008952F92B0
:101870003F924F925F926F927F928F929F92AF9220
:10188000BF92CF92DF92EF92FF920F931F93CF936D
:10189000DF9300D000D000D0CDB7DEB79E838D831C
:1018A0004B013A016901802F21E030E029014C18F9
:1018B0005D08222433242C183D08220C331CB12C43
:1018C000A12C01E010E0982F94709983A82FA270AA
:1018D000AA83B82FB870BB8381708C83AC14BD040D
:1018E0000CF0A7C057FC08C081E0C81AD10892E0EC
:1018F000290E311C420C531CAFEFAA1ABA0A0E5F14
:101900001F4F400E511EB981BB2311F1AD81BE8125
:10191000ED91FC9111970484F585E02D9701A601C6
:10192000460D571DB4016A0D7B1DCD010995AD8192
:10193000BE81ED91FC9111970484F585E02D97010E
:10194000A3014A0D5B1DB601680D791DCD010995F6
:10195000BA81BB2311F1AD81BE81ED91FC9111974C
:101960000484F585E02D9701A3014C195D09B401AC
:101970006A0D7B1DCD010995AD81BE81ED91FC9174
:1019800011970484F585E02D9701A3014A195B099D
:10199000B601680D791DCD010995BB81BB2311F1FD
:1019A000AD81BE81ED91FC9111970484F585E02D08
:1019B0009701A3014A0D5B1DB4016C197D09CD018E
:1019C0000995AD81BE81ED91FC9111970484F58557
:1019D000E02D9701A601460D571DB4016A197B0938
:1019E000CD010995BC81BB2309F478CFAD81BE81BF
:1019F000ED91FC9111970484F585E02D9701A301E9
:101A00004A195B09B4016C197D09CD010995AD81B5
:101A1000BE81ED91FC9111970484F585E02D97012D
:101A2000A3014C195D09B4016A197B09CD0109951F
:101A300055CF26960FB6F894DEBF0FBECDBFDF910F
:101A4000CF911F910F91FF90EF90DF90CF90BF90BB
:101A5000AF909F908F907F906F905F904F903F904E
:101A60002F9008956F927F928F929F92AF92BF9224
:101A7000CF92DF92EF92FF920F931F93CF93DF935A
:101A80005C01EB016A01490138018701DC01ED913C
:101A9000FC916217730719F5641675062CF0962DE4
:101AA000872D3A01C92ED82E9601261937092F5FA6
:101AB0003F4F048CF58DE02DA301BE01C5010995B2
:101AC000DF91CF911F910F91FF90EF90DF90CF901A
:101AD000BF90AF909F908F907F906F900895461524
:101AE000570591F42617370724F0892D4B01C22F93
:101AF000D82F9E01281939092F5F3F4F068CF78D8B
:101B0000E02DA601B401DACF0284F385E02D09951A
:101B1000D501ED91FC910488F589E02D83019401B4
:101B2000A601BE01C5010995D501ED91FC9106887C
:101B3000F789E02DC501DF91CF911F910F91FF90A3
:101B4000EF90DF90CF90BF90AF909F908F907F905D
:101B50006F900994EF92FF920F931F93DC011A96F6
:101B60000D911C911B9718962D913C911997ED9111
:101B7000FC9100A0F1A1E02D7B0150E040E070E07D
:101B800060E009951F910F91FF90EF9008954F929B
:101B90005F926F927F928F929F92AF92BF92CF92FD
:101BA000DF92EF92FF920F931F93CF93DF936C011D
:101BB0002B015A0139014801DC01ED91FC910284AD
:101BC000F385E02D0995E201640C751CD601ED91B9
:101BD000FC91C615D7055CF40088F189E02D8701DA
:101BE0009401A501BE01C60109952196EFCF068893
:101BF000F789E02DC601DF91CF911F910F91FF90E2
:101C0000EF90DF90CF90BF90AF909F908F907F909C
:101C10006F905F904F9009948F929F92AF92BF9276
:101C2000CF92DF92EF92FF920F931F93CF93DF93A8
:101C3000EC015B014A016901E881F9810284F385C5
:101C4000E02D099595012C0D3D1D21503109E881AC
:101C5000F9810488F589E02D78018401A401B5019A
:101C6000CE010995E881F9810688F789E02DCE013A
:101C7000DF91CF911F910F91FF90EF90DF90CF9068
:101C8000BF90AF909F908F9009948F929F92AF9248
:101C9000BF92CF92DF92EF92FF920F931F93CF9359
:101CA000DF93EC015B014A0169017801E881F98168
:101CB0000284F385E02D0995C80CD91C86010150DA
:101CC0001109E881F9810488F589E02D9501A401C5
:101CD000B501CE010995E881F9810688F789E02DE3
:101CE000CE01DF91CF911F910F91FF90EF90DF9088
:101CF000CF90BF90AF909F908F900994EF92FF92FA
:101D00000F931F93DC01ED91FC9100A0F1A1E02D58
:101D100009951F910F91FF90EF9008952F923F9298
:101D20004F925F926F927F928F929F92AF92BF92EB
:101D3000CF92DF92EF92FF920F931F93CF93DF9397
:101D400000D000D000D0CDB7DEB74C017C836B83D0
:101D50001A013E832D8368012701C901201731072D
:101D60000CF0C80195958795AA24A394B12C892BD2
:101D700011F4B12CA12C3501660C771C8B819C8150
:101D80008A0D9B1D9A8389832D813E8126193709EF
:101D900072018601A101BC01C4010E947E0EC61819
:101DA000D708360191E0691A71082A0C3B1C6B8137
:101DB0007C818D819E81680F791F6A197B09615032
:101DC00071096201730101E09501A101C4010E9442
:101DD000690B02E09501A10169817A81C4010E9429
:101DE000690B26960FB6F894DEBF0FBECDBFDF910C
:101DF000CF911F910F91FF90EF90DF90CF90BF9008
:101E0000AF909F908F907F906F905F904F903F909A
:101E10002F9008950F931F93DC01ED91FC91068C98
:101E2000F78DE02D09951F910F9108950F931F9342
:101E3000DC01ED91FC91048CF58DE02D09951F914D
:101E40000F9108952F923F924F925F926F927F92DF
:101E50008F929F92AF92BF92CF92DF92EF92FF92BA
:101E60000F931F93CF93DF93CDB7DEB728970FB6AD
:101E7000F894DEBF0FBECDBF6C017A8369834A013F
:101E8000390118015701C901201731070CF0C801A9
:101E90009595879521E030E038872F83892B11F4C1
:101EA00018861F82EF80F884EE0CFF1CC3018E1988
:101EB0009F099C838B8349805A802F813885420EED
:101EC000531E85019C01A401B201C6010E940A0FA4
:101ED000C101880D991D9E838D83AC01415051092C
:101EE0002B813C81B201C6010E940A0F2E183F08C7
:101EF0002F813885820E931E9101A40169817A8118
:101F0000C6010E94160F89819A81680E791EB3015D
:101F1000615071099101A401C6010E94160F75015B
:101F200001E02F813885A401B201C6010E94370C5F
:101F30002F813885621A730A31E0631A710802E052
:101F40002F813885A401B301C6010E94370C8D8012
:101F50009E808F819885881A990A91E0891A910844
:101F600004E02F813885A401B301C6010E94370C1B
:101F700008E02F813885A401B201C6010E94370C08
:101F800028960FB6F894DEBF0FBECDBFDF91CF917C
:101F90001F910F91FF90EF90DF90CF90BF90AF9087
:101FA0009F908F907F906F905F904F903F902F9079
:101FB0000895DC01ED91FC910084F185E02D0994F8
:101FC0002F923F924F925F926F927F928F929F9249
:101FD000AF92BF92CF92DF92EF92FF920F931F9337
:101FE000CF93DF9300D000D000D0CDB7DEB73C0157
:101FF0006A013E832D83FC82EB825801A41AB50A44
:10200000B7FE03C0B194A194B1088D809E80861A5A
:10201000970A97FE03C09194819491088A149B04B7
:102020005CF0902F812F0D811E819D838E839C2DCE
:102030008D2D6B01692F782F0C151D055CF09D818E
:102040008E817E836D83692F782F902F812F86015B
:10205000C92ED82E1601201A310A2B012D813E815E
:10206000421A530A57FE03C051944194510871011A
:1020700037FE03C03FEFE31AF30AF594E7948D812E
:102080009E81861797075CF5A1E0B0E0BA83A9832B
:10209000C016D1064CF1D301ED91FC910484F58575
:1020A000E02D2B813C81A8016D817E818A149B04E7
:1020B0001CF04D815E81B801C3010995E418F50853
:1020C000F7FE0AC02D813E8189819A81280F391F30
:1020D0003E832D83E20CF31C0F5F1F4FD9CF2FEFF0
:1020E0003FEF3A832983D4CF26960FB6F894DEBF0C
:1020F0000FBECDBFDF91CF911F910F91FF90EF9059
:10210000DF90CF90BF90AF909F908F907F906F9017
:102110005F904F903F902F900895CF92DF92EF9273
:10212000FF920F931F93CF93DF93EC019F85933022
:10213000B8F18E01015E1F4F9695892F90E00196B0
:10214000498D489F9001499F300D11248889820F45
:10215000932F911D2A8930E03CA72BA79EA78DA71E
:10216000D12CC12CE62EF12CCE14DF0444F46CEDFE
:10217000C8010E94380A8FEFC81AD80AF5CFD12CAF
:10218000C12C898990E08E199F09C816D90644F49C
:102190006BEDC8010E94380A8FEFC81AD80AF1CF38
:1021A000DF91CF911F910F91FF90EF90DF90CF9033
:1021B0000895CF93C091A403882359F081E0C827E4
:1021C000C093A40361E0C11101C060E088E00E94F7
:1021D000A8048C2FCF910895CF93DF93813011F015
:1021E0008F3F99F42091A2033091A3039AE08902D2
:1021F000200D311D11242F3F3105A1F09CF02FEF50
:1022000030E03093A3032093A203C091A203D091A6
:10221000A303823019F4CE010E941205CE01DF9192
:10222000CF91089537FFEDCF1092A3031092A20330
:10223000ECCFCF93DF93813011F08F3F99F4209151
:10224000A2033091A3039AE08902200D311D1124CD
:102250002F3F310591F08CF08FEF90E09093A30326
:102260008093A203C091A203D091A303CE010E9448
:102270001205CE01DF91CF91089537FD05C030934F
:10228000A3032093A203EECF1092A3031092A20304
:10229000E9CFEF92FF920F931F93CF93DF93CDB7C8
:1022A000DEB72B970FB6F894DEBF0FBECDBF60E050
:1022B00089E00E94A80481E02B960FB6F894DEBF57
:1022C0000FBECDBFDF91CF911F910F91FF90EF9087
:1022D0000895EF92FF920F931F93CF93DF93CDB7A3
:1022E000DEB72B970FB6F894DEBF0FBECDBF61E00F
:1022F00089E00E94A80481E02B960FB6F894DEBF17
:102300000FBECDBFDF91CF911F910F91FF90EF9046
:102310000895089590E080E00895FB010190002069
:10232000E9F73197AF01461B570BDC01ED91FC91AA
:102330000280F381E02D09946115710511F00C9470
:102340008D1190E080E008956F927F928F929F921E
:10235000AF92BF92CF92DF92EF92FF920F931F93B3
:10236000CF93DF93CDB7DEB72B970FB6F894DEBFD0
:102370000FBECDBF982E892EA82FB92FFD01019039
:102380000020E9F73197EA1BFB0B062F10E07801DC
:102390002FEFE21AF20A5801CE0101966C01E617FE
:1023A00008F440C01F926F9383E196E09F938F9350
:1023B0001F9286E08F93DF92CF920E949E1EC701EC
:1023C0000E9409233C010FB6F894DEBF0FBECDBFBB
:1023D000FC01119201501109E0F78F929F92DF9258
:1023E000CF92FF92EF929F938F930E9433240FB668
:1023F000F894DEBF0FBECDBFC3012B960FB6F89485
:10240000DEBF0FBECDBFDF91CF911F910F91FF9027
:10241000EF90DF90CF90BF90AF909F908F907F9084
:102420006F900895FF27C8018E1B9F0B97FD0196A3
:10243000959587958E0F9F2F911D081B190B1F9344
:102440000F939F938F938AE196E09F938F931F92B0
:102450008BE08F93DF92CF920E949E1EC7010E9455
:1024600009233C010FB6F894DEBF0FBECDBFFC01BF
:10247000119231E0A31AB108D8F721EA33E03F9373
:102480002F938F929F92DF92CF92FF92EF929F9322
:102490008F930E943324ABCFFF920F931F93CF9360
:1024A000DF9300D000D000D01F92CDB7DEB7F42E5E
:1024B0001A821982FE01339685E0DF011D928A950A
:1024C000E9F77F936F938BEB90E09F938F931F922D
:1024D00087E08F938E010F5F1F4F1F930F930E9412
:1024E0009E1E6F2DC8010E94A4110FB6F894DEBF86
:1024F0000FBECDBF27960FB6F894DEBF0FBECDBF7F
:10250000DF91CF911F910F91FF9008950E942E248B
:102510001F93CF93DF9385ED8093BC008091A80338
:102520009091A903A091AA03B091AB030796A11DB6
:10253000B11D23E0B695A795979587952A95D1F774
:102540002091BC0024FD03C01092F00352C04091C2
:10255000A8035091A9036091AA037091AB03452B86
:10256000462B472B69F30097A105B10541F025E300
:102570002A95F1F700000197A109B109E1CF8091F7
:10258000A703C1E0C093A603882399F1D091B800B6
:102590001091BA008091BC008A7B8093BC0060E0FF
:1025A00082E10E94A80460E083E10E94A8041092E6
:1025B000F003C093F2031092F10361E082E10E9404
:1025C000A80461E083E10E94A8048091B9008E7F95
:1025D0008093B9008091B9008D7F8093B90088E421
:1025E0008093B80085E48093BC001093BA00D09328
:1025F000B800DF91CF911F910895E1E2F1E028EF5B
:1026000031E0DF01A9011D9241505040E1F7DC01AA
:102610001D961C921E921C971F961C921E921E972E
:102620000895EF92FF920F931F93CF93DF93CDB74F
:10263000DEB72B970FB6F894DEBF0FBECDBF8DE08F
:1026400095E00E94FD121092220480E02B960FB6B6
:10265000F894DEBF0FBECDBFDF91CF911F910F91D8
:10266000FF90EF9008950F931F93CF93DF93FC019A
:102670008785208930E0918D092F10E0A289B0E094
:102680004189EF016F96B4A7A3A78330C8F0869560
:10269000899F200D311D112436A725A7CF010E9447
:1026A0004C128C01BC01CE010E949C110115110538
:1026B00099F0C801DF91CF911F910F910C94A52340
:1026C0008150990B809FD001819FB00D909FB00DDC
:1026D00011242A0F3B1FE0CFDF91CF911F910F9163
:1026E00008954F925F926F927F928F929F92AF92D6
:1026F000BF92CF92DF92EF92FF920F931F93CF93EF
:10270000DF93CDB7DEB72E970FB6F894DEBF0FBEBE
:10271000CDBF7C01062F4DB65EB6DC015A968C917A
:1027200090E09C012F5F3F4FEDB7FEB7E21BF30B2C
:102730000FB6F894FEBF0FBEEDBF2DB73EB72F5FAB
:102740003F4F590102979F938F939F938F938FEAE7
:1027500090E09F938F931F928EE08F93AE014F5F17
:102760005F4F4A015F934F930E949E1E10E0D70176
:1027700013968C911397800F912F911D2BE0289F1A
:102780003001299F700C112416968D919C91680E32
:10279000791EF301818192810E94951EAC0155271B
:1027A000CA0101962DB73EB7265F3F4F0FB6F8948A
:1027B0003EBF0FBE2DBFADB7BEB7A81BB90B0FB63E
:1027C000F894BEBF0FBEADBFEDB7FEB731966F0137
:1027D000CA0111920197E8F7D30111966D917C918E
:1027E000C6010E948C1EDF92CF929F928F92F701BA
:1027F000828D90E001969F938F93BF92AF920E943B
:102800003324D7015E969C915E97EDB7FEB738965C
:102810000FB6F894FEBF0FBEEDBF13968C911397C1
:10282000913009F0A9C011962C911197281B330BF8
:102830000217130709F0B9C0D0961C921E929F97F9
:1028400021E030E0D2963C932E93D197800F912FC8
:10285000911D4BE0489F9001499F300D1124D701F5
:102860001696ED91FC911797E20FF31F808181304E
:1028700041F45A96EC91EA0DFB2DF11D31978FEA48
:1028800080836701BFE1CB0ED11CB501C6010E9458
:102890009C11F701838190E0A801480F591F6BE05C
:1028A000649F9001659F300D11240680F781E02D13
:1028B000E20FF31F20812430F1F5D7015996AC9037
:1028C000599758962C91A21ABB08B7FE03C0BFEFC8
:1028D000AB1ABB0AB594A794D7019D962D913C9154
:1028E0009E97A20EB31E53962C915397A20EB11C25
:1028F0000184F285E02D5E962C915E97213009F0DF
:1029000060C011962C9130E0281B390B0217130779
:1029100009F057C080E00995F70126896489758917
:1029200030E0F12CE12C8901A501882309F457C07E
:10293000C6010E948E0E6FE973E0C6010E948D11E0
:102940000FB6F8945EBE0FBE4DBE2E960FB6F8942D
:10295000DEBF0FBECDBFDF91CF911F910F91FF90D2
:10296000EF90DF90CF90BF90AF909F908F907F902F
:102970006F905F904F900895911117C011962C9110
:102980001197281B330B0217130779F421E030E06D
:10299000D0963C932E939F97D2961C921E92D197DD
:1029A0005D969C91F501908351CF21E030E0D701F5
:1029B000D0963C932E939F97D2961C921E92D197BD
:1029C00045CF80E00995D70156962C91569754969D
:1029D0006D917C9130E0EE24E394F12CA4CFC601FC
:1029E0000E94220FA8CF6F927F928F929F92AF92F8
:1029F000BF92CF92DF92EF92FF920F931F93CF93EC
:102A0000DF93CDB7DEB78C016DB67EB67C012FE1CA
:102A1000E20EF11CC7010E94FD12D8019C961C9287
:102A20001E929B979E961C921E929D9757968C91F4
:102A3000811101C081E0F80183AB84ABA680B7802F
:102A4000D5018C918111AEC08DB69EB611968D9137
:102A50009C910E94951EAC015527CA010196EDB7C5
:102A6000FEB7E81BF90B0FB6F894FEBF0FBEEDBF23
:102A70002DB73EB72F5F3F4F6901CA01F90111928F
:102A80000197E8F7D50111966D917C91C6010E94DE
:102A90008C1EF801628D6250C6010E94A4115C0177
:102AA000D8015A968C9190E00196EDB7FEB7E81BDD
:102AB000F90B0FB6F894FEBF0FBEEDBF2DB73EB7B2
:102AC0002F5F3F4F6901BF92AF922AEA30E03F93F8
:102AD0002F939F938F93DF92CF920E949E1E8DB76C
:102AE0009EB708960FB6F8949EBF0FBE8DBFA11477
:102AF000B10419F0C5010E94A52381E090E0D8013E
:102B0000D0969C938E939F97D2961C921E92D197AB
:102B1000B601C7010E948D116FE973E0C7010E94E1
:102B20008D11F8018181811108C0838D81508583C9
:102B300083818F5F838381E081830FB6F8949EBE8B
:102B40000FBE8DBEF80180859185009759F00680F3
:102B5000F781E02D9F012F5B3B4F4081453029F5E8
:102B600096838583D12C8BE0C82ED80115968C9145
:102B70001597D816A8F5AD2CB12C13968C911397F8
:102B80008A0D9B2D911DC89E9001C99E300D112468
:102B90001696ED91FC91E20FF31F808181110AC01E
:102BA000D394E3CF838D8583CDCF3B96E217F30794
:102BB000A1F6D8CF6D2DC8010E947113F801838151
:102BC0008A0D9B2D911DC89E9001C99E300D112428
:102BD0000680F781E02DE20FF31F8081853001F739
:102BE000C7010E9455070FB6F8947EBE0FBE6DBE9A
:102BF000DF91CF911F910F91FF90EF90DF90CF90D9
:102C0000BF90AF909F908F907F906F9008952F927C
:102C10003F924F925F926F927F928F929F92AF926C
:102C2000BF92CF92DF92EF92FF920F931F93CF93B9
:102C3000DF93CDB7DEB72DB63EB6633091F49091F9
:102C40002204911126C08C3061F4293E334048F0B3
:102C500080912004909121040E94F31481E08093DC
:102C600022040FB6F8943EBE0FBE2DBEDF91CF9169
:102C70001F910F91FF90EF90DF90CF90BF90AF909A
:102C80009F908F907F906F905F904F903F902F908C
:102C90000895823009F064C000912004109121044D
:102CA000D80111966C9111978C918823A1F01696FA
:102CB000ED91FC91BBE06B9FE00DF11D11240780AD
:102CC000F085E02D81E00995BC01C8010E94331315
:102CD000C8014F96B6C1662321F2F801A681B781DB
:102CE000FD012BE0629FE00DF11D11243B978081D7
:102CF000882309F4B6CF6150F80161838381681796
:102D000030F481508383C8010E94F314AACF462F68
:102D1000481B550B9A01681B818D90E04C91411125
:102D20001CC014A613A62F5F3F4F289FA001299F08
:102D3000500D389F500D112456A745A7C8010E9479
:102D40007113D80111966C9111976F5F13968C9146
:102D5000681BC8010E947113BBCF14A613A6E5CF50
:102D60008B3009F05BC00091200410912104F80120
:102D7000E680F7806181D701689FA00DB11D112405
:102D80008081882329F01796ED91FC918FEF9BCFDE
:102D90008C91853009F465CF6F5FD8016183238101
:102DA000E62FE21BFF0BCF0115963C9115973E17BE
:102DB0001F0609F024F42F5F13962C93A4CF599685
:102DC0004C91599750E0621B6150F701208121110D
:102DD00017C09C961C921E929B97849F9001859F82
:102DE000300D949F300D11249E963C932E939D9709
:102DF000C8010E947113D80111966C911197A6CF4A
:102E0000F80114A613A60197849F9001859F300DA9
:102E1000949F300D112436A725A7EACF8C3009F0F6
:102E200020CFC0902004D0902104F6014681578124
:102E30002181DA01FBE02F9FA00DB11D11248C919F
:102E4000833009F46CC070F5813009F44AC08230D7
:102E500009F007CF1396ED91FC911497CD010995D8
:102E6000882309F4FECED60118968D919C9119976E
:102E700017969C938E93169712968C911297119693
:102E80008C93119714968C91149713968C93139797
:102E900019961C921E92189712961C9212971496CD
:102EA0001C924BC0843009F4D3C0853009F0D9CED0
:102EB0001396ED91FC911497309711F0CD0109957F
:102EC000F60181810680F781E02D2BE0829FE00DE5
:102ED000F11D112485819681009709F4C2CED60197
:102EE00014C015968D919C91009709F4BACED60125
:102EF00019965C934E93189712962C9312971396EB
:102F00002C91139714962C93149717969C938E9349
:102F1000169713961C92139711961C920EC0179633
:102F2000ED91FC91309709F49CCED6018C918823C9
:102F300031F082E00995F6011082C601E5CE81E00C
:102F40008C9380E009953C015601BFE1AB0EB11CAA
:102F5000F6018285882309F477C0048510E0238573
:102F600030E0468550E0658570E0F12CE12CC5012C
:102F70000E94C70DD6011C960C911C9710E01B9661
:102F80002C911B9730E01E964C911E9750E01D9699
:102F90006C9170E0EE24E394F12CC5010E940A0BC1
:102FA000F6018785823008F447C04DB65EB6808949
:102FB00090E0228930E034A723A796A785A78181D6
:102FC0000680F781E02D2BE0829FE00DF11D11249A
:102FD00081809280C4010E94951E8C011127C80136
:102FE00001964DB75EB7481B590B0FB6F8945EBFFC
:102FF0000FBE4DBF8DB79EB701967C01A801B401ED
:103000000E948C1EF701E00FF11F1082D60151962D
:103010006C91C7010E94A4118C01BC01C5010E94E2
:103020009C110115110519F0C8010E94A5230FB6C6
:10303000F8945EBE0FBE4DBEB301C6010E943313AD
:10304000C5010E9455070DCEC5010E94FD12A8CFF3
:103050001996ED91FC9181E00995F601618123813A
:10306000462F421B550BCA010196318D389FA00196
:10307000399F500D112414A613A656A745A7621B0D
:10308000C6010E947113C60124CE1F920F920FB683
:103090000F9211242F933F934F935F936F937F93DE
:1030A0008F939F93AF93BF93EF93FF9385E294E049
:1030B0000E94C703FF91EF91BF91AF919F918F91B4
:1030C0007F916F915F914F913F912F910F900FBE24
:1030D0000F901F9018951F920F920FB60F92112408
:1030E0002F938F939F93EF93FF93E0913504F0918B
:1030F00036048081E0913B04F0913C0482FD1BC0CA
:10310000908180913E048F5F8F7320913F048217DE
:1031100041F0E0913E04F0E0EB5DFB4F958F809332
:103120003E04FF91EF919F918F912F910F900FBED1
:103130000F901F9018958081F4CF1F920F920FB6B9
:103140000F9211242F933F938F939F93AF93BF932D
:103150008091170490911804A0911904B0911A0459
:103160003091160423E0230F2D3758F50196A11D49
:10317000B11D209316048093170490931804A09314
:103180001904B0931A0480911B0490911C04A0911F
:103190001D04B0911E040196A11DB11D80931B0456
:1031A00090931C04A0931D04B0931E04BF91AF9193
:1031B0009F918F913F912F910F900FBE0F901F9075
:1031C000189526E8230F0296A11DB11DD2CF1F929C
:1031D0000F920FB60F9211242F933F934F935F934B
:1031E0006F937F938F939F93AF93BF93EF93FF93CF
:1031F0008091B900887F803609F44AC0F0F58832A2
:1032000009F4A5C018F5803109F499C0B8F48823F1
:1032100009F4F5C0883009F492C0FF91EF91BF9195
:10322000AF919F918F917F916F915F914F913F915E
:103230002F910F900FBE0F901F901895883109F4B1
:1032400086C0803251F78093EF0314C0803409F4B4
:103250009BC040F48033B9F38833F9F68093EF03D1
:1032600085ECAEC0803509F483C0883509F494C07C
:10327000883499F60E948812D0CF883909F48AC020
:1032800038F5883729F050F4883611F0803729F660
:1032900083E08093F0031092EE0355C0883809F460
:1032A00079C0803919F0803809F0B7CF8091EE03EA
:1032B000803208F06FC0E091EE0381E08E0F8093C2
:1032C000EE038091BB00F0E0E253FC4F80833BC0F3
:1032D000803B39F0D0F4803A09F477C0883A09F09D
:1032E0009CCF84E08093F0031092CD031092CC0326
:1032F000F0E0E0E009958091CC0381110FC081E0FE
:103300008093CC031092AC0309C0803C09F4A8CF91
:10331000883C09F4A5CF883B09F07FCFE091CD032D
:1033200081E08E0F8093CD03F0E0E455FC4F808167
:103330008093BB009091CD038091CC0329C08091F4
:1033400015048093BB0085EC8093BC0066CF909100
:10335000140480911304981758F5E091140481E047
:103360008E0F80931404F0E0ED50FC4F8081E9CF84
:10337000E091140481E08E0F809314048091BB00CF
:10338000F0E0ED50FC4F8083909114048091130481
:103390009817C8F285E8D8CFE091140481E08E0F29
:1033A000809314048091BB00F0E0ED50FC4F8083CB
:1033B0008091F20381115ECF81E08093F10384EA72
:1033C0008093BC001092F00328CF85EC8093BC0062
:1033D0001092F0038091EE03803230F4E091EE031E
:1033E000F0E0E253FC4F10826091EE0370E08EEC4F
:1033F00093E0F0E0E0E009951092EE030ECF10921A
:10340000EF0338CFCF93DF93EC01862F1B8291E03F
:103410009C831D8627E036E1388F2F8B68831982C5
:103420009E8742E350E060E070E04F87588B698BE5
:103430007A8B44EF51E060E070E04B8B5C8B6D8BDE
:103440007E8B62E00E94D6048981813041F48881BC
:103450000E947F0421E0892B31F420E004C021E0A8
:103460008E858823D1F32A83DF91CF910895E5E2F9
:10347000F4E01382128288EE93E0A0E0B0E084834F
:103480009583A683B78385E693E09183808385EC5B
:1034900090E09587848784EC90E09787868780EC1E
:1034A00090E0918B808B81EC90E0938B828B82EC0F
:1034B00090E0958B848B86EC90E0978B868B118EB9
:1034C000128E138E148EEDE0F5E01382128224E545
:1034D00030E03583248380E390E0978386833187CF
:1034E000208793878287168A158614861786168604
:1034F00081E0858B848B2FEF3FEF338B228B318BD9
:10350000208B878B108E128E118E87E793E091832C
:10351000808386E0838F87E0848F85E0858F83E0DA
:10352000868F84E0878F62E084EF94E00E94021A25
:103530006BE08BED94E00E94021A6CE082EC94E068
:103540000C94021ACF93DF93CDB7DEB7EB970FB68B
:10355000F894DEBF0FBECDBF789484B5826084BD81
:1035600084B5816084BD85B5826085BD85B5816087
:1035700085BD80916E00816080936E001092810005
:1035800080918100826080938100809181008160C0
:103590008093810080918000816080938000809181
:1035A000B10084608093B1008091B000816080930D
:1035B000B00080917A00846080937A0080917A00D4
:1035C000826080937A0080917A00816080937A0093
:1035D00080917A00806880937A001092C100E09117
:1035E0003504F091360482E08083E0913104F0915B
:1035F00032041082E0913304F09134048FEC808324
:1036000010923D04E0913904F0913A0486E0808301
:10361000E0913704F0913804808180618083E091EB
:103620003704F0913804808188608083E09137040A
:10363000F0913804808180688083E0913704F091B4
:10364000380480818F7D8083809128058F3FF1F43D
:10365000909129059F3FD1F41FB7F89480911F04E2
:10366000882309F41BC380911F048F5F80931F047C
:103670001FBF8CB58C7F8CBD8DB58E7F8DBD8CB5FD
:10368000837F8CBD8CB58F7D8CBD3CC061E00E947A
:10369000D60461E0809129050E94D6048091290515
:1036A000082E000C990BFC01E051FA4FE491F0E078
:1036B000EE0FFF1FEA51FA4F2591349130933405F4
:1036C00020933305FC01EE52FA4FE491E093360566
:1036D00080912805082E000C990BFC01E051FA4F4F
:1036E000E491F0E0EE0FFF1FEA51FA4F259134917B
:1036F0003093320520933105FC01EE52FA4FE491EC
:10370000E093350561E080912A050E94D6048091FE
:103710002B0518161CF461E00E94D60480912C053C
:1037200018161CF461E00E94D60484E080932E05F4
:1037300088E280932D0510922F05109230058DE0C0
:1037400095E00E9420078DE095E00E94550762E316
:103750008DE095E00E9407078DE095E00E94FD1244
:103760008DE095E00E94550740910F05509110059E
:103770005DA74CA760911105709112057FA76EA7F8
:10378000809113059091140599AB88ABC0901505F5
:10379000D0901605E0901705F0901805A091190536
:1037A000B0911A05BBABAAABE0911B05F0911C05CB
:1037B000FDABECAB40911D0550911E055FAB4EABD0
:1037C00060911F057091200579AF68AF20902105A9
:1037D00030902205409023055090240560902505E7
:1037E00080912605909127059BAF8AAF909128057F
:1037F0009AA3A0912905ABA3B0912A05BCA3E0919F
:103800002B05EDA3F0912C05FEA340912D054FA3B0
:1038100070902E0580902F059090300560913105B5
:103820007091320579A768A780913305909134058E
:103830009BA78AA7A0903505B090360589E490E053
:103840000E9409238C01DC011C9211961C92119795
:1038500012961C92129713961C92139789E193E08B
:1038600017969C938E93169719961C921E921897F2
:1038700081E01A968C931A9757968C93579780E10C
:103880005D968C935D975E961C925E97ECA5FDA568
:103890009296FC93EE9391974EA55FA594965C93B8
:1038A0004E93939768A979A996967C936E93959772
:1038B0009896DC92CE9297979A96FC92EE92999770
:1038C0008AA99BA99C969C938E939B97ECA9FDA992
:1038D0009E96FC93EE939D974EA95FA9D0965C931C
:1038E0004E939F9768AD79ADD2967C936E93D197A6
:1038F000D3962C92D397D4963C92D497D5964C924B
:10390000D597D6965C92D697D7966C92D7978AAD74
:103910009BADD9969C938E93D89787E793E090962A
:103920009C938E935F979AA1DA969C93DA97EBA17A
:10393000DB96EC93DB97FCA1DC96FC93DC974DA126
:10394000DD964C93DD975EA1DE965C93DE976FA1CA
:10395000DF966C93F801E05CFF4F708231968082B5
:1039600031969082319688A599A59183808332966D
:10397000AAA5BBA5B183A0833296A0823196B0825E
:10398000B6010D2C000C880B990B0E94B42126E681
:1039900036E646E65FE30E9418220E948321762ED7
:1039A000F8016387B7010F2C000C880B990B0E945C
:1039B000B42126E636E646E65FE30E9418220E941E
:1039C0008321462FD8011C966C93A72CB12C96010D
:1039D0002A193B0937FF02C02F5F3F4F35952795C6
:1039E000F8012587842E912CF701E819F909F7FDD4
:1039F0003196F595E795D8011E96EC931E9786E0D3
:103A000058968C93589788E059968C93F7FE03C08C
:103A1000B7E0EB0EF11C73E0F594E7947A95E1F7CB
:103A2000D8015B96EC92C60166E070E00E94B92274
:103A3000C62ED8015A966C935A97F42EF694F694A3
:103A4000F6941F96FC921F97872D66E00E94AD2288
:103A500051968C93A401B8E0FB9E401951091124A2
:103A600057FF02C04F5F5F4F559547954E0FD801E6
:103A700050964C93D50156E0859FA019B1091124A9
:103A8000B7FD1196B595A795EA2EE20ED80152968C
:103A9000EC92529791E053969C9353976C2D615002
:103AA000770B6B0196E09C9DB0019D9D700D1124DC
:103AB0006F5F7F4F55967C936E93549794E0569624
:103AC0009C9356974E1B550B42305105A4F46FEF53
:103AD0006F0D1F966C9378E0679F801891081124F2
:103AE00097FE03C09FEF891A990A959487948E0ECA
:103AF000D80150968C92EE2DE21BFF0B3297A4F466
:103B00008150D80151968C93B6E08B9FA018B108D4
:103B10001124B7FE03C0EFEFAE1ABE0AB594A79406
:103B2000A20ED8015296AC92109321040093200467
:103B300061E088E00E94D60461E089E00E94D6043A
:103B400061E08AE00E94D60488EEC82E83E0D82E79
:103B5000E12CF12C9AE0892E912CA12CB12C20E0A3
:103B6000622E20E0722E84EF94E00E941D068BED01
:103B700094E00E941D0682EC94E00E941D060E94C3
:103B8000C105A70196010E94CD2280912304909146
:103B90002404092E000CAA0BBB0B82179307A40761
:103BA000B50708F06FC00E94C105A70196010E94E9
:103BB000CD22309324042093230480912204811188
:103BC00061C08DE095E00E94FD1210921A051092DE
:103BD000190510921C0510921B0504E016E0F8016F
:103BE0006491662341F08DE095E00E94380A0F5FF2
:103BF0001F4F892BA1F76FE973E08DE095E00E94DC
:103C00008D116FE973E08DE095E00E948D11209099
:103C1000230430902404032C000C4408550857FE5C
:103C200065C06DE28DE095E00E94380A22273327B7
:103C3000A901221933094409550919A28E010F5D02
:103C40001F4FCA01B901A50194010E94CD22605DF8
:103C5000D8016E938D01211531054105510589F774
:103C60000115110529F0B8018DE095E00E948D1134
:103C70006FE973E08DE095E00E948D118DE095E095
:103C80000E9455076114710409F46DCF0E94B303BB
:103C9000882309F468CF0E94000065CFEAEFF5E0C1
:103CA0008491ECEDF5E09491E82FF0E0EE0FFF1F2A
:103CB000E853FA4FA591B491EC91E92321F461E026
:103CC0008AE00E94A80461E08AE00E94D6048CB5D4
:103CD00080618CBD8CB580648CBD61E08DE00E94FC
:103CE000D60461E08BE00E94D604BDCCA201910114
:103CF00019A28E010F5D1F4FCA01B901A5019401E0
:103D00000E94CD22605DF80162938F01211531057B
:103D10004105510589F7A4CFFB01DC0102C00590E4
:103D20000D9241505040D8F70895FC0105900020B5
:103D3000E9F7809590958E0F9F1F0895AEE0B0E053
:103D4000E4EAFEE10C945A210D891E898F89988D31
:103D50002EE02C831A83098397FF02C080E090E84D
:103D600001979E838D83AE01455E5F4F698D7A8D8D
:103D7000CE0101960E94CE1E4D815E8157FD0AC084
:103D80002F813885421753070CF49A01020F131F35
:103D9000F80110822E96E4E00C947621ABE0B0E0BE
:103DA000E4EDFEE10C944C217C013B018A01FC0115
:103DB00017821682838181FFC8C1CE0101965C0102
:103DC000F7019381F30193FD859193FF81913F0169
:103DD000882309F453C1853239F493FD859193FF0B
:103DE00081913F01853229F4B70190E00E94BE2005
:103DF000E7CF912C212C312CFFE1F31538F08B32D9
:103E000011F190F4803209F1833229F137FC3CC082
:103E100020ED280F2A3050F536FE20C08AE0989E0B
:103E2000200D1124922E06C08D3291F0803371F74F
:103E3000689430F8F30193FD859193FF81913F01E0
:103E40008111DACF21C0689431F8689432F8F2CF4A
:103E5000689433F8EFCF689434F8ECCFEAE02E9E04
:103E6000200D1124222E689435F8E4CF8E3229F4E7
:103E700036FC04C1689436F8DDCF8C3619F46894AA
:103E800037F8D8CF8836B1F2982F9F7D955493306C
:103E9000E0F08336A1F18337C1F1833509F063C0C7
:103EA0002801F2E04F0E511CF801C080D180692D2D
:103EB00070E036FC02C06FEF7FEFC6010E94A820C1
:103EC0004C01689437F882010AC00C5F1F4FFFE372
:103ED000F98388248394912C6501E89437F833FEA4
:103EE0002DC0522C8114910471F5552009F468CF2E
:103EF000B70180E290E00E94BE205A94F6CFF8010C
:103F0000808189830E5F1F4FE4CF2801F2E04F0EBE
:103F1000511CF801C080D180692D70E036FC02C0D0
:103F20006FEF7FEFC6010E94B3204C018201D5CF15
:103F3000B70180E290E00E94BE202A942814190460
:103F400009F0B0F7CECFF60137FC859137FE8191AD
:103F50006F01B70190E00E94BE2051105A94F1E029
:103F60008F1A9108BFCF843619F0893609F077C0CF
:103F7000F80137FE6BC060817181828193810C5F93
:103F80001F4FF32DFF763F2E97FF09C09095809528
:103F9000709561957F4F8F4F9F4F689437F82AE057
:103FA00030E0A5010E94EE20C82ECA188C2C432CAC
:103FB00036FE0CC0E89440F8C91440F434FE05C045
:103FC00032FC03C0F32DFE7E4F2E892C44FE95C09B
:103FD000FE01EC0DF11D8081803309F087C0242D96
:103FE000297E422E842D8870582E43FC95C040FEB9
:103FF0008FC09C2C821418F42C0C922C981844FE20
:1040000091C0B70180E390E00E94BE2042FE09C04B
:1040100088E790E041FE02C088E590E0B7010E9489
:10402000BE20C91408F48AC0CA94D12C9FEFC91AC3
:10403000D90ACA0CDB1CF60182916F01B70190E02E
:104040000E94BE20AC14BD04B1F74FCF60817181D6
:10405000072E000C880B990B0E5F1F4F92CFD32CAD
:10406000E894D4F82AE030E0853739F1232D297F10
:10407000D22E8F3601F148F48835A9F0F7018681F8
:1040800097812B96E2E10C946821803749F08837BC
:10409000A9F7D4FE02C06894D2F820E130E00DC048
:1040A0006894D4F8F6CF34FE03C0822F8660D82EF1
:1040B00020E132E002C028E030E0F801D7FE0FC076
:1040C00060817181828193810C5F1F4FA5010E94E5
:1040D000EE20C82ECA183D2CE89437F867CF6081CF
:1040E000718190E080E00E5F1F4FF0CF42FC02C074
:1040F000839478CF8394839475CF842D867809F444
:1041000071CFF6CFB70180E290E00E94BE20839489
:104110008214C0F3512C73CF522C5818821408F417
:104120006ECFF8CF842D867809F47BCF8BE241FEE9
:1041300080E247FC8DE2B70190E071CFB70180E3E8
:1041400090E00E94BE209A946CCF8FEF9FEF99CFA2
:10415000FC010590615070400110D8F78095909552
:104160008E0F9F1F0895FC01615070400190011057
:10417000D8F7809590958E0F9F1F08950F931F93EA
:10418000CF93DF93182F092FEB018B8181FD09C09D
:104190001FEF0FEF812F902FDF91CF911F910F9184
:1041A000089582FF14C02E813F818C819D81281744
:1041B00039073CF4E881F981CF010196998388831E
:1041C00010838E819F8101969F838E83E3CFE88544
:1041D000F985812F0995892BA1F3DACFFA01AA2756
:1041E000283051F1203181F1E8946F936E7F6E5F3A
:1041F0007F4F8F4F9F4FAF4FB1E03ED0B4E03CD0E8
:10420000670F781F891F9A1FA11D680F791F8A1FCA
:10421000911DA11D6A0F711D811D911DA11D20D031
:1042200009F468943F912AE0269F11243019305DEB
:104230003193DEF6CF010895462F4770405D4193DC
:10424000B3E00FD0C9F7F6CF462F4F70405D4A3329
:1042500018F0495D31FD4052419302D0A9F7EACFF1
:10426000B4E0A6959795879577956795BA95C9F720
:1042700000976105710508959B01AC010A2E069413
:104280005795479537952795BA95C9F7620F731FCC
:10429000841F951FA01D08952F923F924F925F9209
:1042A0006F927F928F929F92AF92BF92CF92DF9246
:1042B000EF92FF920F931F93CF93DF93CDB7DEB7AB
:1042C000CA1BDB0B0FB6F894DEBF0FBECDBF09943F
:1042D0002A88398848885F846E847D848C849B8496
:1042E000AA84B984C884DF80EE80FD800C811B81A4
:1042F000AA81B981CE0FD11D0FB6F894DEBF0FBED3
:10430000CDBFED0108950E94F72188F09F5798F0E6
:10431000B92F9927B751B0F0E1F0660F771F881FCA
:10432000991F1AF0BA95C9F714C0B13091F00E94E4
:104330001122B1E008950C941122672F782F88275D
:10434000B85F39F0B93FCCF3869577956795B3950B
:10435000D9F73EF490958095709561957F4F8F4F7A
:104360009F4F0895E89409C097FB3EF4909580957F
:10437000709561957F4F8F4F9F4F9923A9F0F92F2B
:1043800096E9BB279395F695879577956795B795A9
:10439000F111F8CFFAF4BB0F11F460FF1BC06F5F8F
:1043A0007F4F8F4F9F4F16C0882311F096E911C0A1
:1043B000772321F09EE8872F762F05C0662371F0C2
:1043C00096E8862F70E060E02AF09A95660F771FD6
:1043D000881FDAF7880F9695879597F9089557FD06
:1043E0009058440F551F59F05F3F71F04795880F63
:1043F00097FB991F61F09F3F79F0879508951216FA
:1044000013061406551FF2CF4695F1DF08C01616A5
:1044100017061806991FF1CF869571056105089456
:104420000895E894BB2766277727CB0197F908956D
:104430000E942B220C949C220E948E2238F00E9413
:10444000952220F0952311F00C9485220C948B2258
:1044500011240C9412220E94EF2170F3959FC1F356
:10446000950F50E0551F629FF001729FBB27F00D22
:10447000B11D639FAA27F00DB11DAA1F649F662777
:10448000B00DA11D661F829F2227B00DA11D621FC6
:10449000739FB00DA11D621F839FA00D611D221F80
:1044A000749F3327A00D611D231F849F600D211D64
:1044B000822F762F6A2F11249F5750409AF0F1F0E7
:1044C00088234AF0EE0FFF1FBB1F661F771F881F50
:1044D00091505040A9F79E3F510580F00C948522E1
:1044E0000C9412225F3FE4F3983ED4F386957795BF
:1044F0006795B795F795E7959F5FC1F7FE2B880FF6
:10450000911D9695879597F9089597F99F6780E88B
:1045100070E060E008959FEF80EC089500240A9415
:104520001616170618060906089500240A9412168E
:104530001306140605060895092E0394000C11F4C1
:10454000882352F0BB0F40F4BF2B11F460FF04C06E
:104550006F5F7F4F8F4F9F4F0895991B79E004C085
:10456000991F961708F0961B881F7A95C9F78095B2
:10457000089597FB072E16F4009407D077FD09D015
:104580000E94EF2207FC05D03EF4909581959F4F45
:104590000895709561957F4F0895A1E21A2EAA1B88
:1045A000BB1BFD010DC0AA1FBB1FEE1FFF1FA217E3
:1045B000B307E407F50720F0A21BB30BE40BF50BE0
:1045C000661F771F881F991F1A9469F76095709569
:1045D000809590959B01AC01BD01CF010895AA1B68
:1045E000BB1B51E107C0AA1FBB1FA617B70710F0DE
:1045F000A61BB70B881F991F5A95A9F78095909510
:10460000BC01CD010895EE0FFF1F0590F491E02D40
:1046100009940F931F93CF93DF938230910510F489
:1046200082E090E0E0913905F0913A0530E020E039
:10463000B0E0A0E0309799F42115310509F44AC0A3
:10464000281B390B24303105D8F58A819B816115EF
:10465000710589F1FB0193838283FE0111C04081C2
:1046600051810281138148175907E0F04817590713
:1046700099F4109761F012960C93129713961C936D
:104680003296CF01DF91CF911F910F910895009342
:10469000390510933A05F4CF2115310551F0421731
:1046A000530738F0A901DB019A01BD01DF01F801D0
:1046B000C1CFEF01F9CF90933A0580933905CDCF63
:1046C000FE01E20FF31F8193919322503109398348
:1046D0002883D7CF2091370530913805232B41F41B
:1046E00020915D0330915E033093380520933705A8
:1046F00020915B0330915C032115310541F42DB706
:104700003EB740915F0350916003241B350BE0914D
:104710003705F0913805E217F307A0F42E1B3F0B85
:104720002817390778F0AC014E5F5F4F2417350723
:1047300048F04E0F5F1F5093380540933705819323
:1047400091939FCFF0E0E0E09CCFCF93DF93009771
:10475000E9F0FC01329713821282A0913905B091E1
:104760003A05ED0130E020E01097A1F4208131817D
:10477000820F931F2091370530913805281739078C
:1047800009F061C0F0933805E0933705DF91CF91D0
:104790000895EA01CE17DF07E8F54A815B819E01A3
:1047A00041155105B1F7E901FB83EA83499159911C
:1047B000C40FD51FEC17FD0761F48081918102962B
:1047C000840F951FE90199838883828193819B835C
:1047D0008A83F0E0E0E012968D919C911397009708
:1047E000B9F52D913C911197CD010296820F931F3F
:1047F00020913705309138052817390739F6309759
:1048000051F510923A0510923905B0933805A093EE
:104810003705BCCFD383C28340815181840F951F5C
:10482000C817D90761F44E5F5F4F88819981480F9F
:10483000591F518340838A819B81938382832115F1
:10484000310509F0B0CFF0933A05E09339059ECFDA
:10485000FD01DC01C0CF13821282D7CF81E090E04E
:10486000F8940C946324AEE0B0E0E9E3F4E20C9435
:104870005A210D891E898F89988D26E02C831A83F1
:10488000098397FF02C080E090E801979E838D83A3
:10489000AE01455E5F4F698D7A8DCE0101960E9413
:1048A000CE1E4D815E8157FD0AC02F81388542178B
:1048B00053070CF49A01020F131FF80110822E9671
:0A48C000E4E00C947621F894FFCF99
:1048CA000271006911000000000000026D00491128
:1048DA000000000000000568000000000000000061
:1048EA0000000000000000000000000000000000BE
:1048FA0000000000000000000000000000000000AE
:10490A0000000000000000C0E0F0F8FCFCFEFFFC24
:10491A00E0000000000000000000000000000000AD
:10492A00000000000000000000000000000000007D
:10493A00000000000000000000000000000000006D
:10494A00000000000000F8F8F8F8F8F8F8F8F8F8AD
:10495A00F8F8F0F0E0E0C080C0FCFFFFFFFF7F3F07
:10496A007FFFFFFFFFFF00000000000000000000C3
:10497A00000000000000000000000000000000002D
:10498A00000000000000000000000000000000001D
:10499A0000000000000000000000000F1F3F7FFF22
:1049AA00FFFFFFFFFFFFFFE7C7C7878F9F9FFFFF3D
:1049BA00FFC1C0E0FCFFFFFFFFFFFCFCFCFCFEFEAA
:1049CA00FEFCFCF8F8F0E0C0C000000000000000A7
:1049DA0000000000000000000000000000000000CD
:1049EA0000000000000000000000000000000000BD
:1049FA00000080C0E0F1FBFFFFFFFFFF7F1F0F0FEA
:104A0A0087E7FFFFFF1F1F3FF9F8F8F8F8F8F8FDEE
:104A1A00FFFFFFFFFFFFFFFFFF7F3F0F07010000C0
:104A2A00000000000000000000000000000000007C
:104A3A00000000000000000000000000000000006C
:104A4A0000000000F0FEFFFFFFFFFFFFFFFFFFFF78
:104A5A00FE7E3F3F0F1FFFFFFFFCF0E0F1FFFFFF6D
:104A6A00FFFFFCF00101010101010101000000004A
:104A7A00000000000000000000000000000000002C
:104A8A00000000000000000000000000000000001C
:104A9A0000000000000000000303030303030303F4
:104AAA000101010100000000000000030F1F3F7F09
:104ABA007FFFFFFFFF7F7F1F030000000000000051
:104ACA0000000000000000000000000000000000DC
:104ADA0000000000000000000000A000000000002C
:104AEA00000000000198000000000100000000041E
:104AFA008E00000000000000D910038500000000AD
:104B0A00001911000003790000000000EC100000F9
:104B1A00057400111300000000000000003B05802E
:104B2A000000000000E903490376033604A7038561
:104B3A0003990300000000380A49038A118911A564
:104B4A00074803D90F7E0E160F0A0FE00F4803FE1F
:104B5A0007FD07450E0C0EC70DAA0D320D0A0B0DE7
:024B6A000A003F
:00000001FF
