:100000000C9413030C943B030C943B030C943B03A0
:100010000C943B030C943B030C943B030C943B0368
:100020000C943B030C943B030C943B030C943B0358
:100030000C943B030C943B030C943B030C943B0348
:100040000C943A180C943B030C9408180C94E21787
:100050000C943B030C943B030C943B030C943B0328
:100060000C9484180C943B034261636B004F6666EA
:10007000004F6E00416C6C204F666600426C7565E7
:10008000204C6564204F4500426C7565204C6564CA
:1000900000477265656E204C656400526564204CB3
:1000A0006564004D61696E204D656E75002A25738B
:1000B0002A002025252D25642E2564732000256423
:1000C0000000000000003E5B4F5B3E3E6B4F6B3E0E
:1000D0001C3E7C3E1C183C7E3C181C577D571C1C4B
:1000E0005E7F5E1C00183C1800FFE7C3E7FF0018A6
:1000F000241800FFE7DBE7FF30483A060E2629798F
:100100002926407F050507407F05253F5A3CE73CEF
:100110005A7F3E1C1C08081C1C3E7F14227F2214A0
:100120005F5F005F5F06097F017F006689956A60F7
:100130006060606094A2FFA29408047E040810200E
:100140007E201008082A1C08081C2A08081E101007
:1001500010100C1E0C1E0C30383E3830060E3E0EB1
:1001600006000000000000005F000000070007001C
:10017000147F147F14242A7F2A1223130864623602
:10018000495620500008070300001C22410000418E
:10019000221C002A1C7F1C2A08083E0808008070C8
:1001A00030000808080808000060600020100804FB
:1001B000023E5149453E00427F400072494949464E
:1001C0002141494D331814127F1027454545393CCC
:1001D0004A494931412111090736494949364649B9
:1001E00049291E00001400000040340000000814DB
:1001F0002241141414141400412214080201590954
:10020000063E415D594E7C1211127C7F49494936A8
:100210003E414141227F4141413E7F494949417F21
:10022000090909013E414151737F0808087F0041D7
:100230007F41002040413F017F081422417F404020
:1002400040407F021C027F7F0408107F3E414141F5
:100250003E7F090909063E4151215E7F0919294661
:10026000264949493203017F01033F4040403F1F77
:100270002040201F3F4038403F63140814630304AC
:100280007804036159494D43007F4141410204080C
:100290001020004141417F040201020440404040DF
:1002A00040000307080020545478407F2844443815
:1002B0003844444428384444287F3854545418005F
:1002C000087E090218A4A49C787F080404780044DE
:1002D0007D40002040403D007F1028440000417FC9
:1002E00040007C047804787C080404783844444452
:1002F00038FC1824241818242418FC7C080404084A
:10030000485454542404043F44243C4040207C1C62
:100310002040201C3C4030403C44281028444C9055
:1003200090907C4464544C440008364100000077AF
:100330000000004136080002010204023C26232688
:100340003C1EA1A161123A4040207A3854545559BC
:1003500021555579412254547842215554784020F2
:10036000545579400C1E527212395555555939540D
:1003700054545939555454580000457C41000245A5
:100380007D420001457C407D1211127DF028252818
:10039000F07C545545002054547C547C0A097F4914
:1003A00032494949323A4444443A324A4848303A58
:1003B0004141217A3A42402078009DA0A07D3D42F3
:1003C00042423D3D4040403D3C24FF2424487E497C
:1003D00043662B2FFC2F2BFF0929F620C0887E09AE
:1003E0000320545479410000447D413048484A324A
:1003F000384040227A007A0A0A727D0D19317D2632
:1004000029292F28262929292630484D4020380817
:1004100008080808080808382F10C8ACBA2F102898
:1004200034FA00007B000008142A142222142A1433
:10043000085500550055AA55AA55AAFF55FF55FF66
:10044000000000FF00101010FF00141414FF001033
:1004500010FF00FF1010F010F0141414FC0014141E
:10046000F700FF0000FF00FF1414F404FC1414173D
:10047000101F10101F101F1414141F00101010F064
:10048000000000001F101010101F10101010F010AE
:10049000000000FF101010101010101010FF1000BE
:1004A0000000FF140000FF00FF00001F10170000F5
:1004B000FC04F414141710171414F404F40000FFCF
:1004C00000F714141414141414F700F71414141768
:1004D0001410101F101F141414F4141010F010F046
:1004E00000001F101F0000001F14000000FC14007B
:1004F00000F010F01010FF10FF141414FF1410106F
:10050000101F00000000F010FFFFFFFFFFF0F0F0F1
:10051000F0F0FFFFFF0000000000FFFF0F0F0F0FC4
:100520000F3844443844FC4A4A4A347E02020606E4
:10053000027E027E0263554941633844443C0440D4
:100540007E201E2006027E020299A5E7A5991C2A9C
:10055000492A1C4C7201724C304A4D4D303048785B
:100560004830BC625A463D3E494949007E0101017E
:100570007E2A2A2A2A2A44445F444440514A44405D
:1005800040444A51400000FF0103E080FF000008A2
:10059000086B6B083612362436060F090F0600006A
:1005A00018180000001010003040FF0101001F016A
:1005B000011E00191D1712003C3C3C3C00000000CD
:1005C0000025252E25647300252525647325252502
:1005D000647300000000080002010000030407002B
:1005E0000000000000000000000000250028002B93
:1005F0000000000000240027002A00040404040472
:1006000004040402020202020203030303030301BF
:100610000204081020408001020408102001020496
:10062000081020009F1911241FBECFEFD8E0DEBFB5
:10063000CDBF13E0A0E0B1E0EEEBF9E402C005901D
:100640000D92A23AB107D9F724E0A2EAB3E001C0C3
:100650001D92AD3EB207E1F713E0C3E1D3E004C061
:100660002197FE010E947D23C231D107C9F70E9464
:10067000FC190C94DD240C94000090E0FC01E15F77
:10068000F94F249185509A4FFC018491882399F069
:1006900090E0880F991FFC01EF50FA4FA591B4919B
:1006A000FC01E951FA4F859194918FB7F894EC9140
:1006B000E22BEC938FBF08950895AF92BF92CF9233
:1006C000DF92EF92FF920F931F93CF93DF936C0112
:1006D0007B018B01040F151FEB015E01AE18BF08F3
:1006E000C017D10759F06991D601ED91FC910190A5
:1006F000F081E02DC6010995892B79F7C501DF91BD
:10070000CF911F910F91FF90EF90DF90CF90BF900E
:10071000AF900895FC01538D448D252F30E0842F38
:1007200090E0821B930B541710F0CF960895019719
:100730000895FC01918D828D981761F0A28DAE0F06
:10074000BF2FB11D5D968C91928D9F5F9F73928F8D
:1007500090E008958FEF9FEF0895FC01918D828DB9
:10076000981731F0828DE80FF11D858D90E0089586
:100770008FEF9FEF0895FC01918D228D892F90E0DE
:10078000805C9F4F821B91098F739927089582E2A5
:1007900094E00E94BB0321E0892B09F420E0822F22
:1007A000089580E090E0892B29F00E94C703811111
:1007B0000C9400000895FC01A48DA80FB92FB11D61
:1007C000A35ABF4F2C91848D90E001968F73992787
:1007D000848FA689B7892C93A089B1898C91837065
:1007E00080648C93938D848D981306C00288F3895E
:1007F000E02D80818F7D80830895EF92FF920F938B
:100800001F93CF93DF93EC0181E0888F9B8D8C8DBC
:1008100098131AC0E889F989808185FF15C09FB7B0
:10082000F894EE89FF896083E889F9898081837073
:10083000806480839FBF81E090E0DF91CF911F9122
:100840000F91FF90EF900895F62E0B8D10E00F5F43
:100850001F4F0F731127E02E8C8D8E110CC00FB619
:1008600007FCFACFE889F989808185FFF5CFCE01B1
:100870000E94DB03F1CFEB8DEC0FFD2FF11DE35A4E
:10088000FF4FF0829FB7F8940B8FEA89FB89808134
:100890008062CFCFCF93DF93EC01888D8823B9F0AE
:1008A000AA89BB89E889F9898C9185FD03C080817B
:1008B00086FD0DC00FB607FCF7CF8C9185FFF2CFF8
:1008C000808185FFEDCFCE010E94DB03E9CFDF9170
:1008D000CF91089590E0FC01ED52FA4F2491FC0174
:1008E000E15FF94F3491FC01E550FA4FE491EE23BA
:1008F000C9F0222339F0233001F1A8F4213019F195
:10090000223029F1F0E0EE0FFF1FE951FA4FA591D7
:10091000B4918FB7F894EC91611126C030953E23C5
:100920003C938FBF08952730A9F02830C9F02430B8
:1009300049F7809180008F7D03C0809180008F7780
:1009400080938000DFCF84B58F7784BDDBCF84B503
:100950008F7DFBCF8091B0008F778093B000D2CF96
:100960008091B0008F7DF9CF3E2BDACFCF93DF930C
:10097000EC018AE00E943D03209731F460E08AE0B8
:10098000DF91CF910C946A04CF3FD10511F461E05F
:10099000F6CFEDEDF5E0E491E33029F140F4E130FC
:1009A000B1F0E230D9F0C038D1058CF7E7CFE730AD
:1009B00021F1E83051F1E430B1F78091800080629C
:1009C00080938000D0938B00C0938A0004C084B5CC
:1009D000806884BDC7BDDF91CF91089584B58062E2
:1009E00084BDC8BDF8CF809180008068809380006E
:1009F000D0938900C0938800EECF8091B0008068CA
:100A00008093B000C093B300E6CF8091B0008062C5
:100A10008093B000C093B400DECF3FB7F8948091CC
:100A20001B0490911C04A0911D04B0911E0426B5D6
:100A3000A89B05C02F3F19F00196A11DB11D3FBF16
:100A4000BA2FA92F982F8827BC01CD01620F711DE5
:100A5000811D911D42E0660F771F881F991F4A95DF
:100A6000D1F708958F929F92AF92BF92CF92DF926B
:100A7000EF92FF924B015C010E940D056B017C011E
:100A80000E940D056C197D098E099F09683E73400F
:100A900081059105A8F321E0821A9108A108B10807
:100AA00088EEC80E83E0D81EE11CF11C811491046D
:100AB000A104B10429F7FF90EF90DF90CF90BF9091
:100AC000AF909F908F9008952091CC03260F3327ED
:100AD000331F21323105ECF42091F003FC0190E04A
:100AE00080E0243069F082E00895A091CC03219148
:100AF000AC0144555C4FA40FB52FB11D2C9301964A
:100B0000861798F38091CC03680F6093CC0380E044
:100B1000089581E008958FEF9FEF08958FEF9FEF85
:100B200008958091A50390E091958195910908958C
:100B3000CF93DF93CB01EA01642F0E946405CE01BD
:100B4000DF91CF910895CF93DF931F92CDB7DEB79A
:100B5000698361E0CE0101960E94640581E090E026
:100B60000F90DF91CF910895FC01838D8F3F51F459
:100B7000848D8F3F39F46EBD00000DB407FEFDCFAC
:100B80008EB5089528E030E090E8A6A1B7A14C9179
:100B900081A5809584238C93A4A1B5A180A5462F1F
:100BA000492371F04C91842B8C93A6A1B7A18C9111
:100BB00041A5842B8C9396952150310931F70895E6
:100BC0004C9180958423F0CF1F93CF93DF93EC015A
:100BD000162F60E08D8D0E946A048F8D18161CF40C
:100BE00060E00E946A04612FCE010E94B4058F8DDF
:100BF000181634F461E0DF91CF911F910C946A04D0
:100C0000DF91CF911F9108950F931F93CF938C0184
:100C1000C62F67FDCFE7F801C0A361E2C8010E94BB
:100C2000E4056C2F6068C8010E94E40560E2C80119
:100C3000CF911F910F910C94E4051F93CF93DF93F5
:100C4000EC018E8D18166CF460E00E946A0464EF6B
:100C500071E080E090E00E94320561E08E8D0E949C
:100C60006A0419A1183008F017E019A361E2CE0157
:100C70000E94E405612F6061CE010E94E40560E2FC
:100C8000CE010E94E40568A1CE010E94040660E244
:100C9000CE010E94E4056CE0CE01DF91CF911F915F
:100CA0000C94E405CF92DF92EF92FF920F931F9383
:100CB000CF93DF93EC019AA1992329F08BA18F5F49
:100CC0008917D8F58BA383E6E82E81E0F82E10E093
:100CD000612F6064CE010E94E40560E8CE010E94AD
:100CE000E40561E08D8D0E946A048F8D18161CF456
:100CF00060E00E946A04670104E5F60161916F01FA
:100D0000CE010E94B4050150C1F78F8D18161CF456
:100D100061E00E946A041F5FF4E5EF0EF11C1630DB
:100D2000B9F660E4CE01DF91CF911F910F91FF9052
:100D3000EF90DF90CF900C94E4051BA2CE010E94AF
:100D40001D06C1CFFC01D90177FD3CC0808591858E
:100D500068177907BCF557FD35C08285938548171C
:100D6000590784F58689823071F18330C9F1813069
:100D700031F48FE290E0861B970BBA01AC01643529
:100D8000710500F540335105E8F4CA0123E095955B
:100D900087952A95E1F724E5289FF001299FF00D1A
:100DA0001124E60FF71FED59FE4F3081477055278C
:100DB00081E090E001C0880F4A95EAF7AB2BB9F0CB
:100DC000832B8083089583E590E09C01261B370BDD
:100DD000B9018FE290E09C01241B350BA901CFCF14
:100DE00083E590E0841B950BAB01BC01C8CF8095D7
:100DF0008323E7CF0895FC016370668B848195811E
:100E000026813781613039F0633029F091878087FE
:100E100033872287089531872087938782870895B3
:100E20002F923F924F925F926F927F928F929F92FA
:100E3000AF92BF92CF92DF92EF92FF920F931F93E8
:100E4000CF93DF93CDB7DEB76A970FB6F894DEBFC6
:100E50000FBECDBF9A8F898F7A8369834A01D22EC4
:100E600018870F833701BC2CDC0159962D913C91DA
:100E70005A972115310509F015C118968D919C914D
:100E80001997681779070CF0D7C11A968D919C9124
:100E9000481759070CF0D0C14C2C512CB6E0CB9E12
:100EA000600D711D11247C876B87161617060CF0D8
:100EB000C3C1EA2DF0E0FA87E98793E0EE0FFF1F48
:100EC0009A95E1F7F88BEF87CF01840F951F1816DD
:100ED00019060CF0B1C1A98DBA8D58968C9181116B
:100EE00004C0BFEABD1508F4D394A98DBA8DED9165
:100EF000FC9111970284F385E02DCD010995B5E0B1
:100F0000DB9EC0011124E981FA81FC83EB83312C43
:100F1000212C9C012F533F4F388F2F8B4A2D50E0AF
:100F20005E8B4D8BEF89F88DE20DF31D44919E820F
:100F30008D82D12CC12C69817A81620D731D7A8BCF
:100F4000698B842F90E09C8B8B8BE98DFA8DA0812F
:100F5000B18140FF82C0F1E0BF126FC0AF126DC01F
:100F60001C96ED91FC912F813885A4014C0D5D1DDF
:100F700069897A89898D9A8D0995EB89FC89F5951E
:100F8000E7954E2F5FEFC51AD50A6D817E818D8959
:100F90009E89680F791F7E836D8398E0C916D104FE
:100FA00081F6AFEF2A1A3A0AEB81FC81E40DF51DB8
:100FB000FC83EB83F5E02F16310409F0B3CF2F81CA
:100FC000388526153705B9F0A98DBA8DED91FC91BC
:100FD000B1E0BB1257C0AB1255C069817A816B5F1B
:100FE0007F4F0088F189E02D830128E030E0A401E3
:100FF000898D9A8D0995A98DBA8DED91FC911197E6
:101000000688F789E02DCD016A960FB6F894DEBF09
:101010000FBECDBFDF91CF911F910F91FF90EF9049
:10102000DF90CF90BF90AF909F908F907F906F9008
:101030005F904F903F902F9009941E96ED91FC91F8
:10104000EF80F88409851A8592014D815E816B815C
:101050007C81898D9A8D099590CF2F8138852615B1
:10106000370509F48ACF31E0B31207C0A31205C0D7
:101070001C96ED91FC91930178CF1E96ED91FC9119
:101080007301E0CF6B857C85641975090684F7854B
:10109000E02D73010F8518899201A401898D9A8D25
:1010A0000995A9CFF90134969491329745915491BD
:1010B000D91AB7E0DB9E400D511D1124F90125918D
:1010C00034913C8B2B8BFA0125903490FA013296A7
:1010D000749031963491398B329664903196449065
:1010E00041E04C1518F04A1508F07FC0662D062C1B
:1010F000000C770B7C836B83842D042C000C990BE4
:101100009E838D83A98DBA8DED91FC9111970284F8
:10111000F385E02DCD010995512CD12CC12CEA2D60
:10112000F0E0FA87E9872B2D30E03C872B87A4017C
:10113000440D511D47FC5A95588F4F8B69817A8118
:10114000660D711D67FC7A957E876D877989C71654
:1011500008F051CF2C2D30E04D815E81420F531F9E
:10116000A985BA854A9FC0014B9F900D5A9F900D4B
:101170001124FC01E80DF91DF88BEF87852D612CFA
:101180004F89588D420F531F5E8B4D8B671408F0AB
:1011900050C044244394480E877041F4C101019625
:1011A000EB89FC89E20DF31DD4901C01D7FE19C018
:1011B000A98DBA8DED91FC91662D70E0B1E0BB1266
:1011C00019C0AB1217C02D853E85620F731F0484B2
:1011D000F585E02D2F8138854D895E89898D9A8D21
:1011E0000995DD0C6394842DD1CF1E821D821C8253
:1011F0001B8288CF4B815C81640F751FAB85BC85DA
:101200006A9FC0016B9F900D7A9F900D1124698198
:101210007A81680F791F0684F785E02DEF80F884C6
:1012200009851A859D014F855889898D9A8D099563
:10123000D8CF570CC3948ACF6A960FB6F894DEBF06
:101240000FBECDBFDF91CF911F910F91FF90EF9017
:10125000DF90CF90BF90AF909F908F907F906F90D6
:101260005F904F903F902F9008958F929F92AF92F2
:10127000CF92EF92FF920F931F93CF93DF93EC01E6
:10128000262F898D9A8D009709F051C06A30D1F4CC
:101290001D861C868D8948E0849F900111248E85CF
:1012A0009F85820F931F9F878E8781E090E0DF915B
:1012B000CF911F910F91FF90EF90CF90AF909F90A3
:1012C0008F9008956D3089F3CC88AD888F898823FD
:1012D000C1F08C859D8536E0C39E800D911D112443
:1012E000488559854817590764F44E855F851D86E2
:1012F0001C8638E0A39EC0011124840F951F9F8790
:101300008E87EA88FB88088919894E855F856C85F8
:101310007D85CE010E9410072C898C859D8546E035
:10132000249F800D911D11249D878C87BECF6A302C
:1013300069F41D861C86FC013896E4912D898E8502
:101340009F85E29F800D911D1124ADCF6D3009F472
:10135000ACCFFC0134963491631708F4A6CF3296D3
:10136000E491E61708F4A1CFFC01329685909490A1
:10137000462F431B342F47E0349F800C911C1124CF
:10138000F401329634913196E4913323A9F1EE239E
:1013900099F1CC88F4013596E491AD884F894423C6
:1013A00001F10E2E000CFF0BE30FF11DCE9EA001EC
:1013B000CF9E500D11246C857D85460F571F688583
:1013C0007985641775076CF44E855F851D861C86CC
:1013D000FC013896E491AE9E400D511D11245F87AB
:1013E0004E87EA88FB88088919894E855F856C8558
:1013F0007D85CE010E941007F4013496E4912C897A
:101400008C859D85E29F800D911D11248DCF6F925B
:101410007F928F929F92AF92BF92CF92DF92EF9284
:10142000FF920F931F93CF93DF93EC016B015A014F
:1014300039014801E881F9810284F385E02D09959D
:10144000E881F9810288F389E02D87019301A501E4
:10145000B601CE010995A501480D591D415051090C
:10146000E881F9810288F389E02D9301B601CE016C
:101470000995E881F9810088F189E02D9401A501A1
:10148000B601CE010995C60CD71CB6016150710991
:10149000E881F9810088F189E02D9401A501CE0150
:1014A0000995E881F9810688F789E02DCE01DF9161
:1014B000CF911F910F91FF90EF90DF90CF90BF9051
:1014C000AF909F908F907F906F9009942F923F9252
:1014D0004F925F926F927F928F929F92AF92BF9244
:1014E000CF92DF92EF92FF920F931F93CF93DF93F0
:1014F000CDB7DEB72D970FB6F894DEBF0FBECDBFC8
:101500005C011B0158874F833D872C870987FC822C
:10151000EB82360181E090E06C01C21AD30AC90166
:101520009195819591099C01220F331F3A8329835C
:10153000C70101969E838D83F12CE12C44244394B2
:10154000512CDA011196BB87AA872C853D85E216BE
:10155000F3060CF070C08C849D84D7FC0BC049014D
:1015600031E0831A910889819A8102969A8389834E
:10157000C80ED91E9FEFE91AF90AA2E04A0E511CC3
:10158000C40CD51C8E149F0444F42C853D8528156D
:101590003905F1F49D868C86D8CF9401220F331F34
:1015A0004F81588548195909D501ED91FC91B985AC
:1015B0008D819E81280F391F0088F189E02D8301DC
:1015C000B101B13009F56E0D7F1DC5010995DDCF63
:1015D0009985913019F5920122503109AB81BC8176
:1015E0002A0F3B1F6C857D85620D731DD501ED9122
:1015F000FC910088F189E02D83014A855B854E19B5
:101600005F09C5010995C6CF6E197F09C501099506
:10161000AC85BD85A815B90509F4BCCF920122504F
:1016200031098B819C81280F391FB101AC85BD85A3
:101630006A1B7B0BDBCF2D960FB6F894DEBF0FBE77
:10164000CDBFDF91CF911F910F91FF90EF90DF9071
:10165000CF90BF90AF909F908F907F906F905F9052
:101660004F903F902F9008952F923F924F925F920C
:101670006F927F928F929F92AF92BF92CF92DF92A2
:10168000EF92FF920F931F93CF93DF9300D000D080
:1016900000D0CDB7DEB79E838D834B013A0169013F
:1016A000802F21E030E029014C185D0822243324EA
:1016B0002C183D08220C331CB12CA12C01E010E0A9
:1016C000982F94709983A82FA270AA83B82FB8700E
:1016D000BB8381708C83AC14BD040CF0A7C057FC95
:1016E00008C081E0C81AD10892E0290E311C420CD2
:1016F000531CAFEFAA1ABA0A0E5F1F4F400E511EBD
:10170000B981BB2311F1AD81BE81ED91FC9111979F
:101710000484F585E02D9701A601460D571DB401FF
:101720006A0D7B1DCD010995AD81BE81ED91FC91C6
:1017300011970484F585E02D9701A3014A0D5B1DE7
:10174000B601680D791DCD010995BA81BB2311F150
:10175000AD81BE81ED91FC9111970484F585E02D5A
:101760009701A3014C195D09B4016A0D7B1DCD01E0
:101770000995AD81BE81ED91FC9111970484F585A9
:10178000E02D9701A3014A195B09B601680D791D87
:10179000CD010995BB81BB2311F1AD81BE81ED91D6
:1017A000FC9111970484F585E02D9701A3014A0D62
:1017B0005B1DB4016C197D09CD010995AD81BE8118
:1017C000ED91FC9111970484F585E02D9701A60118
:1017D000460D571DB4016A197B09CD010995BC81DD
:1017E000BB2309F478CFAD81BE81ED91FC911197B7
:1017F0000484F585E02D9701A3014A195B09B40122
:101800006C197D09CD010995AD81BE81ED91FC91E9
:1018100011970484F585E02D9701A3014C195D090A
:10182000B4016A197B09CD01099555CF26960FB6EB
:10183000F894DEBF0FBECDBFDF91CF911F910F9106
:10184000FF90EF90DF90CF90BF90AF909F908F90E0
:101850007F906F905F904F903F902F9008956F9280
:101860007F928F929F92AF92BF92CF92DF92EF9230
:10187000FF920F931F93CF93DF935C01EB016A01FB
:10188000490138018701DC01ED91FC916217730772
:1018900019F5641675062CF0962D872D3A01C92E80
:1018A000D82E9601261937092F5F3F4F048CF58DEE
:1018B000E02DA301BE01C5010995DF91CF911F91D4
:1018C0000F91FF90EF90DF90CF90BF90AF909F90DF
:1018D0008F907F906F9008954615570591F42617C5
:1018E000370724F0892D4B01C22FD82F9E012819CC
:1018F00039092F5F3F4F068CF78DE02DA601B4010B
:10190000DACF0284F385E02D0995D501ED91FC91A4
:101910000488F589E02D83019401A601BE01C5016B
:101920000995D501ED91FC910688F789E02DC50157
:10193000DF91CF911F910F91FF90EF90DF90CF90AB
:10194000BF90AF909F908F907F906F900994EF928F
:10195000FF920F931F93DC011A960D911C911B9718
:1019600018962D913C911997ED91FC9100A0F1A151
:10197000E02D7B0150E040E070E060E009951F91B0
:101980000F91FF90EF9008954F925F926F927F9228
:101990008F929F92AF92BF92CF92DF92EF92FF927F
:1019A0000F931F93CF93DF936C012B015A013901E1
:1019B0004801DC01ED91FC910284F385E02D09954D
:1019C000E201640C751CD601ED91FC91C615D7059A
:1019D0005CF40088F189E02D87019401A501BE0126
:1019E000C60109952196EFCF0688F789E02DC6013B
:1019F000DF91CF911F910F91FF90EF90DF90CF90EB
:101A0000BF90AF909F908F907F906F905F904F901E
:101A100009948F929F92AF92BF92CF92DF92EF92F2
:101A2000FF920F931F93CF93DF93EC015B014A0169
:101A30006901E881F9810284F385E02D099595011A
:101A40002C0D3D1D21503109E881F9810488F5896B
:101A5000E02D78018401A401B501CE010995E8814A
:101A6000F9810688F789E02DCE01DF91CF911F9192
:101A70000F91FF90EF90DF90CF90BF90AF909F902D
:101A80008F9009948F929F92AF92BF92CF92DF92E4
:101A9000EF92FF920F931F93CF93DF93EC015B01C3
:101AA0004A0169017801E881F9810284F385E02D1A
:101AB0000995C80CD91C860101501109E881F981EA
:101AC0000488F589E02D9501A401B501CE010995A1
:101AD000E881F9810688F789E02DCE01DF91CF9169
:101AE0001F910F91FF90EF90DF90CF90BF90AF903C
:101AF0009F908F900994EF92FF920F931F93DC01B8
:101B0000ED91FC9100A0F1A1E02D09951F910F919D
:101B1000FF90EF9008952F923F924F925F926F92B5
:101B20007F928F929F92AF92BF92CF92DF92EF926D
:101B3000FF920F931F93CF93DF9300D000D000D07C
:101B4000CDB7DEB74C017C836B831A013E832D83B6
:101B500068012701C901201731070CF0C8019595CC
:101B60008795AA24A394B12C892B11F4B12CA12C14
:101B70003501660C771C8B819C818A0D9B1D9A8395
:101B800089832D813E812619370972018601A101C1
:101B9000BC01C4010E947B0DC618D708360191E034
:101BA000691A71082A0C3B1C6B817C818D819E8196
:101BB000680F791F6A197B0961507109620173010D
:101BC00001E09501A101C4010E94660A02E09501AD
:101BD000A10169817A81C4010E94660A26960FB626
:101BE000F894DEBF0FBECDBFDF91CF911F910F9153
:101BF000FF90EF90DF90CF90BF90AF909F908F902D
:101C00007F906F905F904F903F902F9008950F932B
:101C10001F93DC01ED91FC91068CF78DE02D099569
:101C20001F910F9108950F931F93DC01ED91FC918B
:101C3000048CF58DE02D09951F910F9108952F9239
:101C40003F924F925F926F927F928F929F92AF924C
:101C5000BF92CF92DF92EF92FF920F931F93CF9399
:101C6000DF93CDB7DEB728970FB6F894DEBF0FBE6F
:101C7000CDBF6C017A8369834A013901180157018C
:101C8000C901201731070CF0C8019595879521E00F
:101C900030E038872F83892B11F418861F82EF805C
:101CA000F884EE0CFF1CC3018E199F099C838B8363
:101CB00049805A802F813885420E531E85019C0130
:101CC000A401B201C6010E94070EC101880D991D31
:101CD0009E838D83AC01415051092B813C81B2011F
:101CE000C6010E94070E2E183F082F813885820EEC
:101CF000931E9101A40169817A81C6010E94130E8D
:101D000089819A81680E791EB30161507109910130
:101D1000A401C6010E94130E750101E02F813885D0
:101D2000A401B201C6010E94340B2F813885621ACA
:101D3000730A31E0631A710802E02F813885A4012B
:101D4000B301C6010E94340B8D809E808F819885DF
:101D5000881A990A91E0891A910804E02F81388540
:101D6000A401B301C6010E94340B08E02F8138851D
:101D7000A401B201C6010E94340B28960FB6F89454
:101D8000DEBF0FBECDBFDF91CF911F910F91FF90AE
:101D9000EF90DF90CF90BF90AF909F908F907F900B
:101DA0006F905F904F903F902F900895DC01ED91E0
:101DB000FC910084F185E02D09942F923F924F927F
:101DC0005F926F927F928F929F92AF92BF92CF92CB
:101DD000DF92EF92FF920F931F93CF93DF9300D088
:101DE00000D000D0CDB7DEB73C016A013E832D8321
:101DF000FC82EB825801A41AB50AB7FE03C0B19465
:101E0000A194B1088D809E80861A970A97FE03C020
:101E10009194819491088A149B045CF0902F812FF7
:101E20000D811E819D838E839C2D8D2D6B01692FCD
:101E3000782F0C151D055CF09D818E817E836D834E
:101E4000692F782F902F812F8601C92ED82E160149
:101E5000201A310A2B012D813E81421A530A57FE66
:101E600003C0519441945108710137FE03C03FEF04
:101E7000E31AF30AF594E7948D819E8186179707FC
:101E80005CF5A1E0B0E0BA83A983C016D1064CF19D
:101E9000D301ED91FC910484F585E02D2B813C81EB
:101EA000A8016D817E818A149B041CF04D815E81A6
:101EB000B801C3010995E418F508F7FE0AC02D81A1
:101EC0003E8189819A81280F391F3E832D83E20C40
:101ED000F31C0F5F1F4FD9CF2FEF3FEF3A832983BA
:101EE000D4CF26960FB6F894DEBF0FBECDBFDF91DC
:101EF000CF911F910F91FF90EF90DF90CF90BF9007
:101F0000AF909F908F907F906F905F904F903F9099
:101F10002F900895CF92DF92EF92FF920F931F932D
:101F2000CF93DF93EC019F859330B8F18E01015E72
:101F30001F4F9695892F90E00196498D489F9001FB
:101F4000499F300D11248889820F932F911D2A8972
:101F500030E03CA72BA79EA78DA7D12CC12CE62E45
:101F6000F12CCE14DF0444F46CEDC8010E94350955
:101F70008FEFC81AD80AF5CFD12CC12C898990E0EF
:101F80008E199F09C816D90644F46BEDC8010E944A
:101F900035098FEFC81AD80AF1CFDF91CF911F9181
:101FA0000F91FF90EF90DF90CF900895CF93C09165
:101FB000A403882359F081E0C827C093A40361E0FB
:101FC000C11101C060E088E00E946A048C2FCF91AB
:101FD0000895CF93DF93813011F08F3F99F42091D2
:101FE000A2033091A3039AE08902200D311D112430
:101FF0002F3F3105A1F09CF02FEF30E03093A30389
:102000002093A203C091A203D091A303823019F4BC
:10201000CE010E94B604CE01DF91CF91089537FF23
:10202000EDCF1092A3031092A203ECCFCF93DF93D6
:10203000813011F08F3F99F42091A2033091A303D6
:102040009AE08902200D311D11242F3F310591F0B6
:102050008CF08FEF90E09093A3038093A203C09144
:10206000A203D091A303CE010E94B604CE01DF915A
:10207000CF91089537FD05C03093A3032093A203A9
:10208000EECF1092A3031092A203E9CFEF92FF923A
:102090000F931F93CF93DF93CDB7DEB72B970FB678
:1020A000F894DEBF0FBECDBF60E088E00E946A04F6
:1020B00060E089E00E946A0490E080E00E94B6043B
:1020C00080E02B960FB6F894DEBF0FBECDBFDF9138
:1020D000CF911F910F91FF90EF900895EF92FF9293
:1020E0000F931F93CF93DF93CDB7DEB72B970FB628
:1020F000F894DEBF0FBECDBF60E089E00E946A04A5
:1021000081E02B960FB6F894DEBF0FBECDBFDF91F6
:10211000CF911F910F91FF90EF900895EF92FF9252
:102120000F931F93CF93DF93CDB7DEB72B970FB6E7
:10213000F894DEBF0FBECDBF61E089E00E946A0463
:1021400081E02B960FB6F894DEBF0FBECDBFDF91B6
:10215000CF911F910F91FF90EF900895089590E017
:1021600080E00895FB0101900020E9F73197AF016D
:10217000461B570BDC01ED91FC910280F381E02DB1
:1021800009946115710511F00C94B21090E080E093
:1021900008956F927F928F929F92AF92BF92CF924B
:1021A000DF92EF92FF920F931F93CF93DF93CDB700
:1021B000DEB72B970FB6F894DEBF0FBECDBF982EBB
:1021C000892EA82FB92FFD0101900020E9F7319742
:1021D000EA1BFB0B062F10E078012FEFE21AF20A40
:1021E0005801CE0101966C01E61708F440C01F9219
:1021F0006F9381EC95E09F938F931F9286E08F936E
:10220000DF92CF920E94C81EC7010E9483233C0127
:102210000FB6F894DEBF0FBECDBFFC011192015086
:102220001109E0F78F929F92DF92CF92FF92EF9287
:102230009F938F930E94AD240FB6F894DEBF0FBE1C
:10224000CDBFC3012B960FB6F894DEBF0FBECDBF36
:10225000DF91CF911F910F91FF90EF90DF90CF9082
:10226000BF90AF909F908F907F906F900895FF27C1
:10227000C8018E1B9F0B97FD0196959587958E0F34
:102280009F2F911D081B190B1F930F939F938F93E3
:1022900088EC95E09F938F931F928BE08F93DF9252
:1022A000CF920E94C81EC7010E9483233C010FB633
:1022B000F894DEBF0FBECDBFFC01119231E0A31A2E
:1022C000B108D8F721EA33E03F932F938F929F9282
:1022D000DF92CF92FF92EF929F938F930E94AD2453
:1022E000ABCFFF920F931F93CF93DF9300D000D01B
:1022F00000D01F92CDB7DEB7F42E1A821982FE01EC
:10230000339685E0DF011D928A95E9F77F936F93FD
:102310008EEB90E09F938F931F9287E08F938E01B7
:102320000F5F1F4F1F930F930E94C81E6F2DC80190
:102330000E94C9100FB6F894DEBF0FBECDBF27961E
:102340000FB6F894DEBF0FBECDBFDF91CF911F91C6
:102350000F91FF9008954F925F926F927F928F92AC
:102360009F92AF92BF92CF92DF92EF92FF920F9324
:102370001F93CF93DF93CDB7DEB72E970FB6F894A8
:10238000DEBF0FBECDBF7C01062F4DB65EB6DC01B1
:102390005A968C9190E09C012F5F3F4FEDB7FEB7AE
:1023A000E21BF30B0FB6F894FEBF0FBEEDBF2DB7C7
:1023B0003EB72F5F3F4F590102979F938F939F9393
:1023C0008F9382EB90E09F938F931F928EE08F9379
:1023D000AE014F5F5F4F4A015F934F930E94C81E4B
:1023E00010E0D70113968C911397800F912F911DB8
:1023F0002BE0289F3001299F700C112416968D9197
:102400009C91680E791EF301818192810E94BF1E0A
:10241000AC015527CA0101962DB73EB7265F3F4F45
:102420000FB6F8943EBF0FBE2DBFADB7BEB7A81B09
:10243000B90B0FB6F894BEBF0FBEADBFEDB7FEB778
:1024400031966F01CA0111920197E8F7D3011196F5
:102450006D917C91C6010E94B61EDF92CF929F9231
:102460008F92F701828D90E001969F938F93BF9298
:10247000AF920E94AD24D7015E969C915E97EDB716
:10248000FEB738960FB6F894FEBF0FBEEDBF139699
:102490008C911397913009F0A9C011962C91119746
:1024A000281B330B0217130709F0B9C0D0961C92F2
:1024B0001E929F9721E030E0D2963C932E93D197C5
:1024C000800F912F911D4BE0489F9001499F300D47
:1024D0001124D7011696ED91FC911797E20FF31F87
:1024E0008081813041F45A96EC91EA0DFB2DF11D6B
:1024F00031978FEA80836701BFE1CB0ED11CB50114
:10250000C6010E94C110F701838190E0A801480F25
:10251000591F6BE0649F9001659F300D1124068068
:10252000F781E02DE20FF31F20812430F1F5D70170
:102530005996AC90599758962C91A21ABB08B7FEA1
:1025400003C0BFEFAB1ABB0AB594A794D7019D9601
:102550002D913C919E97A20EB31E53962C915397AA
:10256000A20EB11C0184F285E02D5E962C915E973F
:10257000213009F060C011962C9130E0281B390BF6
:102580000217130709F057C080E00995F701268963
:102590006489758930E0F12CE12C8901A50188233B
:1025A00009F457C0C6010E948B0D6FE973E0C601A4
:1025B0000E94B2100FB6F8945EBE0FBE4DBE2E96AE
:1025C0000FB6F894DEBF0FBECDBFDF91CF911F9144
:1025D0000F91FF90EF90DF90CF90BF90AF909F90C2
:1025E0008F907F906F905F904F900895911117C0DA
:1025F00011962C911197281B330B0217130779F4AE
:1026000021E030E0D0963C932E939F97D2961C9277
:102610001E92D1975D969C91F501908351CF21E058
:1026200030E0D701D0963C932E939F97D2961C9280
:102630001E92D19745CF80E00995D70156962C91EF
:10264000569754966D917C9130E0EE24E394F12CF2
:10265000A4CFC6010E941F0EA8CF0F931F93CF9344
:10266000DF93FC018785208930E0918D092F10E0F0
:10267000A289B0E04189EF016F96B4A7A3A7833088
:10268000C8F08695899F200D311D112436A725A7F6
:10269000CF010E9471118C01BC01CE010E94C110BA
:1026A0000115110599F0C801DF91CF911F910F918C
:1026B0000C941F248150990B809FD001819FB00DF5
:1026C000909FB00D11242A0F3B1FE0CFDF91CF91D7
:1026D0001F910F9108956F927F928F929F92AF9268
:1026E000BF92CF92DF92EF92FF920F931F93CF93FF
:1026F000DF93CDB7DEB78C016DB67EB65C012FE1FE
:10270000A20EB11CE3E6F1E088EF91E0DF019C014D
:102710001D9221503040E1F7D8019C961C921E92E8
:102720009B979E961C921E929D9757968C91811115
:1027300001C081E0F80183AB84ABC680D780D601AD
:102740008C918111AEC08DB69EB611968D919C91E3
:102750000E94BF1EAC015527CA010196EDB7FEB716
:10276000E81BF90B0FB6F894FEBF0FBEEDBF2DB7F7
:102770003EB72F5F3F4F7901CA01F90111920197CE
:10278000E8F7D60111966D917C91C7010E94B61EA3
:10279000F801628D6250C7010E94C9106C01D80116
:1027A0005A968C9190E00196EDB7FEB7E81BF90BB5
:1027B0000FB6F894FEBF0FBEEDBF2DB73EB72F5F2B
:1027C0003F4F7901DF92CF922DEA30E03F932F9374
:1027D0009F938F93FF92EF920E94C81E8DB79EB772
:1027E00008960FB6F8949EBF0FBE8DBFC114D104DA
:1027F00019F0C6010E941F2481E090E0D801D09614
:102800009C938E939F97D2961C921E92D197B7015C
:10281000C5010E94B2106FE973E0C5010E94B210B9
:10282000F8018181811108C0838D81508583838166
:102830008F5F838381E081830FB6F8949EBE0FBEC5
:102840008DBEF80180859185009759F00680F7814B
:10285000E02D9F012F5B3B4F4081453029F596834A
:102860008583F12C8BE0E82ED80115968C91159775
:10287000F816A8F5CF2CD12C13968C9113978C0DAC
:102880009D2D911DE89E9001E99E300D1124169614
:10289000ED91FC91E20FF31F808181110AC0F39446
:1028A000E3CF838D8583CDCF3B96E217F307A1F667
:1028B000D8CF6F2DC8010E94AB11F80183818C0D18
:1028C0009D2D911DE89E9001E99E300D11240680FA
:1028D000F781E02DE20FF31F8081853001F7C501FC
:1028E0000E9452060FB6F8947EBE0FBE6DBEDF91F9
:1028F000CF911F910F91FF90EF90DF90CF90BF90FD
:10290000AF909F908F907F906F900895CF92DF92BD
:10291000EF92FF920F931F93CF93DF93EC016981A6
:1029200088818823E1F1EE81FF818BE0689FE00DD3
:10293000F11D11240780F085E02D81E009958C01BF
:10294000BC01CE010E942D13B801110F880B990B09
:102950000E94502220E030E04FE753E40E94AD2176
:102960006B017C01698970E090E080E00E94502258
:102970009B01AC01C701B6010E94DC220E941F220C
:10298000CE010E948A0FCE014F96DF91CF911F9109
:102990000F91FF90EF90DF90CF900C94520666233A
:1029A00009F440C0AE81BF81FD018BE0689FE00D5E
:1029B000F11D11243B9780818823A1F16150698327
:1029C0008B81681768F481508B83CE01DF91CF91A2
:1029D0001F910F91FF90EF90DF90CF900C946B13AD
:1029E000498D50E0E62FE81BFF0B9F01681B8C917F
:1029F0001CA61BA6811102C02F5F3F4F429FC00142
:102A0000439F900D529F900D11249EA78DA7CE013C
:102A10000E94AB1169816F5F8B81681BCE010E94A0
:102A2000AB11B1CFDF91CF911F910F91FF90EF903C
:102A3000DF90CF9008952F923F924F925F926F92C6
:102A40007F928F929F92AF92BF92CF92DF92EF923E
:102A5000FF920F931F93CF93DF9300D0CDB7DEB7D4
:102A60006C013B012DB73EB73A832983DC011696F2
:102A70004D915C91179711962C91DA01EBE02E9F06
:102A8000A00DB11D11248C91833009F45CC008F5B0
:102A90008130E1F1823009F453C1E981FA810FB646
:102AA000F894FEBF0FBEEDBF0F900F90DF91CF9156
:102AB0001F910F91FF90EF90DF90CF90BF90AF905C
:102AC0009F908F907F906F905F904F903F902F904E
:102AD0000895843009F40CC18530F9F61396ED9110
:102AE000FC911497309711F0CD010995F601818181
:102AF0000680F781E02D2BE0829FE00DF11D11246F
:102B000085819681009749F2D60113C015968D9163
:102B10009C91009711F2D60119965C934E931897E9
:102B200012962C93129713962C91139714962C931C
:102B3000149717969C938E93169713961C9213973F
:102B400011961C920EC01796ED91FC91309709F4E6
:102B5000A4CFD6018C91882341F082E00995F6013B
:102B60001082C6010E946B1398CF81E08C9380E0A5
:102B700009954C015601BFE1AB0EB11CF6018285EF
:102B8000882309F4A1C0048510E0238530E0468540
:102B900050E0658570E0F12CE12CC5010E94C40C69
:102BA000D6011C960C911C9710E01B962C911B973C
:102BB00030E01E964C911E9750E01D966C9170E08F
:102BC000EE24E394F12CC5010E94070AF6018785E3
:102BD000823008F447C02DB63EB6808990E0228945
:102BE00030E034A723A796A785A781810680F781C7
:102BF000E02D2BE0829FE00DF11D112441805280D9
:102C0000C2010E94BF1E8C011127C80101964DB759
:102C10005EB7481B590B0FB6F8945EBF0FBE4DBF91
:102C20008DB79EB701967C01A801B2010E94B61E25
:102C3000F701E00FF11F1082D60151966C91C70188
:102C40000E94C9108C01BC01C5010E94C110011570
:102C5000110519F0C8010E941F240FB6F8943EBE5A
:102C60000FBE2DBEB401C6010E942D136114710464
:102C700039F1B40190E080E00E944E221B012C014A
:102C8000B301770C880B990B0E9450229B01AC0179
:102C9000C201B1010E94AD212B013C01F601618905
:102CA00070E090E080E00E9450229B01AC01C301E3
:102CB000B2010E94DC220E941F22C6010E948A0FDC
:102CC000C5010E945206E9CEE3E6F1E088EF91E00B
:102CD000DF019C011D9221503040E1F7D6019C9606
:102CE0001C921E929B979E961C921E929D976ECF51
:102CF0001996ED91FC9181E00995D60111966C91A0
:102D0000119713962C911397E62FE21BFF0BCF011F
:102D1000019659963C915997389FA001399F500DC3
:102D200011249C961C921E929B979E965C934E93A8
:102D30009D97621BC6010E94AB11C6014F96C1CF81
:102D40001396ED91FC911497CD010995882309F410
:102D5000A4CED60118968D919C91199717969C93A5
:102D60008E93169712968C91129711968C931197B9
:102D700014968C91149713968C93139719961C9212
:102D80001E92189712961C92129714961C92E9CED6
:102D900070E060E00C941B15CF92DF92EF92FF92EF
:102DA0000F931F93CF93DF93EC018B01EE81FF8193
:102DB0008981DF014BE0849FA00DB11D1124988112
:102DC000992309F440C01796ED91FC918FEF099576
:102DD0007C01BC01CE010E942D130115110539F1B2
:102DE000B701FF0C880B990B0E9450226B017C01EC
:102DF000B801110F880B990B0E9450229B01AC0166
:102E0000C701B6010E94AD216B017C01698970E0A8
:102E100090E080E00E9450229B01AC01C701B60106
:102E20000E94DC220E941F22CE010E948A0FCE0146
:102E30004F96DF91CF911F910F91FF90EF90DF9010
:102E4000CF900C9452069C919530C1F161E0680FCF
:102E500069832B81462F421B550BCA013D813417D4
:102E6000150609F06CF42F5F2B83CE01DF91CF9113
:102E70001F910F91FF90EF90DF90CF900C946B1308
:102E8000498D50E0621B615020811CA61BA62111B8
:102E900013C0849F9001859F300D949F300D1124A5
:102EA0003EA72DA7CE010E94AB1169818B81681BC3
:102EB000CE010E94AB11BBCF0197EBCFDF91CF9139
:102EC0001F910F91FF90EF90DF90CF90089570E0E9
:102ED00060E00C94CC160E94A8241F93CF93DF933C
:102EE00085ED8093BC008091A8039091A903A091E7
:102EF000AA03B091AB030796A11DB11D23E0B695BF
:102F0000A795979587952A95D1F72091BC0024FD28
:102F100003C01092F00352C04091A8035091A9033E
:102F20006091AA037091AB03452B462B472B69F3A5
:102F30000097A105B10541F025E32A95F1F70000BE
:102F40000197A109B109E1CF8091A703C1E0C09326
:102F5000A603882399F1D091B8001091BA0080910E
:102F6000BC008A7B8093BC0060E082E10E946A041E
:102F700060E083E10E946A041092F003C093F203C0
:102F80001092F10361E082E10E946A0461E083E152
:102F90000E946A048091B9008E7F8093B90080916D
:102FA000B9008D7F8093B90088E48093B80085E4F0
:102FB0008093BC001093BA00D093B800DF91CF91FA
:102FC0001F9108951F920F920FB60F9211242F9305
:102FD0003F934F935F936F937F938F939F93AF93A1
:102FE000BF93EF93FF9382E294E00E94DB03FF9193
:102FF000EF91BF91AF919F918F917F916F915F9171
:103000004F913F912F910F900FBE0F901F901895E9
:103010001F920F920FB60F9211242F938F939F93AD
:10302000EF93FF93E0913204F09133048081E091BB
:103030003804F091390482FD1BC0908180913B04DB
:103040008F5F8F7320913C04821741F0E0913B0425
:10305000F0E0EE5DFB4F958F80933B04FF91EF9185
:103060009F918F912F910F900FBE0F901F901895E9
:103070008081F4CF1F920F920FB60F9211242F93DD
:103080003F938F939F93AF93BF9380911704909139
:103090001804A0911904B0911A043091160423E089
:1030A000230F2D3758F50196A11DB11D209316044D
:1030B0008093170490931804A0931904B0931A04F2
:1030C00080911B0490911C04A0911D04B0911E04DA
:1030D0000196A11DB11D80931B0490931C04A09325
:1030E0001D04B0931E04BF91AF919F918F913F91AA
:1030F0002F910F900FBE0F901F90189526E8230F69
:103100000296A11DB11DD2CF1F920F920FB60F9242
:1031100011242F933F934F935F936F937F938F93DC
:103120009F93AF93BF93EF93FF938091B900887FF4
:10313000803609F44AC0F0F5883209F4A5C018F5C4
:10314000803109F499C0B8F4882309F4F5C08830B7
:1031500009F492C0FF91EF91BF91AF919F918F9130
:103160007F916F915F914F913F912F910F900FBE83
:103170000F901F901895883109F486C0803251F75E
:103180008093EF0314C0803409F49BC040F4803373
:10319000B9F38833F9F68093EF0385ECAEC0803540
:1031A00009F483C0883509F494C0883499F60E94E4
:1031B0006D17D0CF883909F48AC038F5883729F0DF
:1031C00050F4883611F0803729F683E08093F003BD
:1031D0001092EE0355C0883809F479C0803919F08F
:1031E000803809F0B7CF8091EE03803208F06FC0CD
:1031F000E091EE0381E08E0F8093EE038091BB009F
:10320000F0E0E253FC4F80833BC0803B39F0D0F4C8
:10321000803A09F477C0883A09F09CCF84E0809323
:10322000F0031092CD031092CC03F0E0E0E009959A
:103230008091CC0381110FC081E08093CC03109268
:10324000AC0309C0803C09F4A8CF883C09F4A5CFA1
:10325000883B09F07FCFE091CD0381E08E0F809312
:10326000CD03F0E0E455FC4F80818093BB0090914A
:10327000CD038091CC0329C0809115048093BB00BD
:1032800085EC8093BC0066CF909114048091130468
:10329000981758F5E091140481E08E0F8093140480
:1032A000F0E0ED50FC4F8081E9CFE091140481E023
:1032B0008E0F809314048091BB00F0E0ED50FC4F22
:1032C000808390911404809113049817C8F285E8C4
:1032D000D8CFE091140481E08E0F80931404809184
:1032E000BB00F0E0ED50FC4F80838091F203811130
:1032F0005ECF81E08093F10384EA8093BC0010925A
:10330000F00328CF85EC8093BC001092F0038091ED
:10331000EE03803230F4E091EE03F0E0E253FC4F34
:1033200010826091EE0370E08EEC93E0F0E0E0E05C
:1033300009951092EE030ECF1092EF0338CFE2E220
:10334000F4E01382128288EE93E0A0E0B0E0848380
:103350009583A683B78385E693E09183808385EC8C
:1033600090E09587848784EC90E09787868780EC4F
:1033700090E0918B808B81EC90E0938B828B82EC40
:1033800090E0958B848B86EC90E0978B868B118EEA
:10339000128E138E148EEFEBF4E01382128224E56A
:1033A00030E03583248380E390E097838683318700
:1033B000208793878287168A158614861786168635
:1033C00081E0858B848B2FEF3FEF338B228B318B0A
:1033D000208B878B108E128E118E87E793E091835E
:1033E000808386E0838F87E0848F85E0858F83E00C
:1033F000868F84E0878F0895CF93DF93CDB7DEB7B4
:103400006A970FB6F894DEBF0FBECDBF789484B52F
:10341000826084BD84B5816084BD85B5826085BDD0
:1034200085B5816085BD80916E00816080936E005E
:103430001092810080918100826080938100809150
:103440008100816080938100809180008160809301
:1034500080008091B10084608093B1008091B000C1
:1034600081608093B00080917A00846080937A00BC
:1034700080917A00826080937A0080917A008160E6
:1034800080937A0080917A00806880937A0010920D
:10349000C100E0913204F091330482E08083E09136
:1034A0002E04F0912F041082E0913004F091310449
:1034B0008FEC808310923A04E0913604F091370447
:1034C00086E08083E0913404F0913504808180614E
:1034D0008083E0913404F09135048081886080839A
:1034E000E0913404F0913504808180688083E0911C
:1034F0003404F091350480818F7D80838091DA04DB
:103500008F3F01F59091DB049F3FE1F42FB72983B2
:10351000F89480911F04882309F403C480911F0448
:103520008F5F80931F0439813FBF8CB58C7F8CBD2A
:103530008DB58E7F8DBD8CB5837F8CBD8CB58F7D19
:103540008CBD3AC00E943D038091DB040E943D0384
:103550008091DB04082E000C990BFC01E550FA4F1A
:10356000E491F0E0EE0FFF1FE951FA4F25913491FD
:103570003093E6042093E504FC01E15FF94FE49108
:10358000E093E8048091DA04082E000C990BFC010A
:10359000E550FA4FE491F0E0EE0FFF1FE951FA4FCA
:1035A000259134913093E4042093E304FC01E15F1E
:1035B000F94FE491E093E7048091DC040E943D031D
:1035C0008091DD04181614F40E943D038091DE04FE
:1035D000181614F40E943D0384E08093E00488E20E
:1035E0008093DF041092E1041092E2048FEB94E0E8
:1035F0000E941D068FEB94E00E94520662E38FEB5F
:1036000094E00E940406E3E6F1E088EF91E0DF0138
:103610009C011D9221503040E1F71092CC04109291
:10362000CB041092CE041092CD048FEB94E00E9454
:1036300052064091C1045091C2045A874987809133
:10364000C3049091C4049C878B87A091C504B0915A
:10365000C604BE87AD87E090C704F090C80400910F
:10366000C9041091CA04E091CB04F091CC04F88B0A
:10367000EF872091CD043091CE043A8B298B409175
:10368000CF045091D0045C8B4B8B8091D1049091EE
:10369000D2049E8B8D8B4090D3045090D4046090C4
:1036A000D5047090D6048090D704A091D804B0912E
:1036B000D904B88FAF8B3090DA042090DB04B0913E
:1036C000DC04B983E091DD04EA83F091DE04FB833E
:1036D0002091DF042C839090E004A090E104B0904E
:1036E000E2044091E3045091E4045E834D838091B1
:1036F000E5049091E60498878F83C090E704D0900A
:10370000E80489E490E00E9483239A8F898FDC018A
:103710001C9211961C92119712961C921297139656
:103720001C92139781E291E017969C938E931697C3
:1037300019961C921E92189781E01A968C931A97EC
:1037400057968C93579780E15D968C935D975E9624
:103750001C925E97E985FA859296FC93EE93919779
:103760002B853C8594963C932E9393974D855E854F
:1037700096965C934E9395979896FC92EE929797B7
:103780009A961C930E9399978F8598899C969C93F3
:103790008E939B97E989FA899E96FC93EE939D9769
:1037A0002B893C89D0963C932E939F974D895E89B7
:1037B000D2965C934E93D197D3964C92D397D4964E
:1037C0005C92D497D5966C92D597D6967C92D697E4
:1037D000D7968C92D7978F89988DD9969C938E93F4
:1037E000D89787E793E090969C938E935F97DA96AD
:1037F0003C92DA97DB962C92DB979981DC969C932E
:10380000DC97EA81DD96EC93DD97FB81DE96FC93F5
:10381000DE972C81DF962C93DF97FD01E05CFF4F54
:1038200090823196A0823196B08231964D815E8130
:103830005183408332968F8198859183808332961D
:10384000C0823196D082B7010F2C000C880B990BE7
:103850000E94502226E636E646E65FE30E94DC221E
:103860000E941F22962EA98DBA8D1B966C93B801CB
:10387000012E000C880B990B0E94502226E636E69A
:1038800046E65FE30E94DC220E941F22462FE98D5C
:10389000FA8D6487C92CD12C97012C193D0937FF6B
:1038A00002C02F5F3F4F35952795A98DBA8D1D9684
:1038B0002C93A42EB12CF801EA19FB09F7FD3196DF
:1038C000F595E795A98DBA8D1E96EC931E9786E027
:1038D00058968C93589788E059968C9317FF02C09E
:1038E000095F1F4F73E0159507957A95E1F7A98D4C
:1038F000BA8D5B960C93C70166E070E00E94552379
:10390000062FA98DBA8D5A966C935A97142F169537
:10391000169516951F961C931F97892D66E00E9499
:10392000492351968C93A501B8E01B9F401951097A
:10393000112457FF02C04F5F5F4F559547954E0FBB
:10394000A98DBA8D50964C93D60156E0859FA0194B
:10395000B1091124B7FD1196B595A7959A2E920E2F
:10396000A98DBA8D52969C92529791E053969C9352
:10397000A02FA150BB0B96E09A9F70019B9FF00C6B
:103980001124BFEFEB1AFB0AA98DBA8D5596FC9254
:10399000EE92549794E056969C9356974E1B550B77
:1039A00042305105ACF46FEF610F1F966C93B8E095
:1039B0006B9FA018B1081124B7FE03C04FEFA41AE3
:1039C000B40AB594A794AE0EA98DBA8D5096AC9258
:1039D000E92DE21BFF0B3297B4F48150A98DBA8D0B
:1039E00051968C93B6E08B9FC018D1081124D7FE56
:1039F00003C0EFEFCE1ADE0AD594C794C20EA98D8C
:103A0000BA8D5296CC92E98DFA8DF0932104E09311
:103A1000200488E00E943D0389E00E943D038AE083
:103A20000E943D03898D9A8D0E946B1368EE73E0AE
:103A300080E090E00E943205809120049091210462
:103A40000E94C81668EE73E080E090E00E943205A4
:103A500080912004909121040E94C81668EE73E0C2
:103A600080E090E00E943205809120049091210432
:103A70000E94C81668EE73E080E090E00E94320574
:103A800080912004909121040E94671768EE73E0F2
:103A900080E090E00E943205809120049091210402
:103AA0000E94C81668EE73E080E090E00E94320544
:103AB00080912004909121040E94C81668EE73E062
:103AC00080E090E00E9432058091200490912104D2
:103AD0000E94C81668EE73E080E090E00E94320514
:103AE00080912004909121040E94671768EE73E092
:103AF00080E090E00E9432058091200490912104A2
:103B00000E94C81668EE73E080E090E00E943205E3
:103B100080912004909121040E94C81668EE73E001
:103B200080E090E00E943205809120049091210471
:103B30000E94C81668EE73E080E090E00E943205B3
:103B400080912004909121040E94671768EE73E031
:103B500080E090E00E9432056FEF70E080912004D9
:103B6000909121040E941B1568EE73E080E090E0C4
:103B70000E9432052EE030E03E832D8364EF71E039
:103B800080E090E00E943205809120049091210411
:103B90000E9486144D815E81415051095E834D83A0
:103BA000452B61F78EE090E09E838D8364EF71E09A
:103BB00080E090E00E9432056FEF70E08091200479
:103BC000909121040E94CC16AD81BE811197BE83D5
:103BD000AD83AB2B59F780912004909121040E9472
:103BE000C81668EE73E080E090E00E943205809194
:103BF0002004909121040E94671768EE73E080E032
:103C000090E00E9432056FEF70E080912004909167
:103C100021040E941B1568EE73E080E090E00E9492
:103C20003205EEE0F0E0FE83ED8364EF71E080E0CA
:103C300090E00E94320580912004909121040E941E
:103C400086142D813E81215031093E832D83232B03
:103C500061F768EE73E080E090E00E9432058091A9
:103C60002004909121040E94C81668EE73E080E061
:103C700090E00E9432056FEF70E0809120049091F7
:103C800021040E941B1568EE73E080E090E00E9422
:103C900032054EE050E05E834D8364EF71E080E0DA
:103CA00090E00E9432056FEF70E0809120049091C7
:103CB00021040E94CC168D819E8101979E838D8365
:103CC000892B59F768EE73E080E090E00E9432059E
:103CD00080912004909121040E94C81668EE73E040
:103CE00080E090E00E9432058091200490912104B0
:103CF0000E94671768EE73E080E090E00E94320552
:103D000080912004909121040E94C816A0E0B0E0A8
:103D1000AB2BE1F30E94C7038823C1F30E9400008C
:103D2000F5CFE5E0F6E08491E9E1F6E09491E82F43
:103D3000F0E0EE0FFF1FEF50FA4FA591B491EC9118
:103D4000E92321F461E08AE00E946A048AE00E948B
:103D50003D038CB580618CBD8CB580648CBD8DE0DD
:103D60000E943D038BE00E943D03D8CBFB01DC01A8
:103D700002C005900D9241505040D8F70895FC01C3
:103D800005900020E9F7809590958E0F9F1F08956C
:103D9000AEE0B0E0EEECFEE10C9484210D891E89CA
:103DA0008F89988D2EE02C831A83098397FF02C098
:103DB00080E090E801979E838D83AE01455E5F4F62
:103DC000698D7A8DCE0101960E94F81E4D815E812B
:103DD00057FD0AC02F813885421753070CF49A010A
:103DE000020F131FF80110822E96E4E00C94A0211C
:103DF000ABE0B0E0EEEFFEE10C9476217C013B01FC
:103E00008A01FC0117821682838181FFC8C1CE011D
:103E100001965C01F7019381F30193FD859193FF76
:103E200081913F01882309F453C1853239F493FD10
:103E3000859193FF81913F01853229F4B70190E08C
:103E40000E94E820E7CF912C212C312CFFE1F315C3
:103E500038F08B3211F190F4803209F1833229F17C
:103E600037FC3CC020ED280F2A3050F536FE20C02C
:103E70008AE0989E200D1124922E06C08D3291F07A
:103E8000803371F7689430F8F30193FD859193FFC7
:103E900081913F018111DACF21C0689431F8689493
:103EA00032F8F2CF689433F8EFCF689434F8ECCF5F
:103EB000EAE02E9E200D1124222E689435F8E4CFDE
:103EC0008E3229F436FC04C1689436F8DDCF8C3686
:103ED00019F4689437F8D8CF8836B1F2982F9F7DBF
:103EE00095549330E0F08336A1F18337C1F18335E7
:103EF00009F063C02801F2E04F0E511CF801C080A8
:103F0000D180692D70E036FC02C06FEF7FEFC601F3
:103F10000E94D2204C01689437F882010AC00C5FDD
:103F20001F4FFFE3F98388248394912C6501E89463
:103F300037F833FE2DC0522C8114910471F55520B1
:103F400009F468CFB70180E290E00E94E8205A941B
:103F5000F6CFF801808189830E5F1F4FE4CF2801DF
:103F6000F2E04F0E511CF801C080D180692D70E045
:103F700036FC02C06FEF7FEFC6010E94DD204C01CE
:103F80008201D5CFB70180E290E00E94E8202A9418
:103F90002814190409F0B0F7CECFF60137FC85914B
:103FA00037FE81916F01B70190E00E94E820511027
:103FB0005A94F1E08F1A9108BFCF843619F08936F0
:103FC00009F077C0F80137FE6BC060817181828192
:103FD00093810C5F1F4FF32DFF763F2E97FF09C093
:103FE00090958095709561957F4F8F4F9F4F689406
:103FF00037F82AE030E0A5010E941821C82ECA181F
:104000008C2C432C36FE0CC0E89440F8C91440F4C4
:1040100034FE05C032FC03C0F32DFE7E4F2E892CEA
:1040200044FE95C0FE01EC0DF11D8081803309F046
:1040300087C0242D297E422E842D8870582E43FC63
:1040400095C040FE8FC09C2C821418F42C0C922C2E
:10405000981844FE91C0B70180E390E00E94E820E8
:1040600042FE09C088E790E041FE02C088E590E08A
:10407000B7010E94E820C91408F48AC0CA94D12C60
:104080009FEFC91AD90ACA0CDB1CF60182916F0195
:10409000B70190E00E94E820AC14BD04B1F74FCF07
:1040A00060817181072E000C880B990B0E5F1F4FEA
:1040B00092CFD32CE894D4F82AE030E0853739F158
:1040C000232D297FD22E8F3601F148F48835A9F0AF
:1040D000F701868197812B96E2E10C94922180373B
:1040E00049F08837A9F7D4FE02C06894D2F820E1DD
:1040F00030E00DC06894D4F8F6CF34FE03C0822FB0
:104100008660D82E20E132E002C028E030E0F801DD
:10411000D7FE0FC060817181828193810C5F1F4F38
:10412000A5010E941821C82ECA183D2CE89437F822
:1041300067CF6081718190E080E00E5F1F4FF0CF0C
:1041400042FC02C0839478CF8394839475CF842DEE
:10415000867809F471CFF6CFB70180E290E00E9433
:10416000E82083948214C0F3512C73CF522C58183A
:10417000821408F46ECFF8CF842D867809F47BCFB3
:104180008BE241FE80E247FC8DE2B70190E071CF07
:10419000B70180E390E00E94E8209A946CCF8FEF03
:1041A0009FEF99CFFC010590615070400110D8F746
:1041B000809590958E0F9F1F0895FC01615070406F
:1041C00001900110D8F7809590958E0F9F1F08954C
:1041D0000F931F93CF93DF93182F092FEB018B8140
:1041E00081FD09C01FEF0FEF812F902FDF91CF913D
:1041F0001F910F91089582FF14C02E813F818C8101
:104200009D81281739073CF4E881F981CF01019697
:104210009983888310838E819F8101969F838E83EB
:10422000E3CFE885F985812F0995892BA1F3DACFB2
:10423000FA01AA27283051F1203181F1E8946F93D7
:104240006E7F6E5F7F4F8F4F9F4FAF4FB1E03ED07D
:10425000B4E03CD0670F781F891F9A1FA11D680F1B
:10426000791F8A1F911DA11D6A0F711D811D911D4E
:10427000A11D20D009F468943F912AE0269F1124C3
:104280003019305D3193DEF6CF010895462F477027
:10429000405D4193B3E00FD0C9F7F6CF462F4F7082
:1042A000405D4A3318F0495D31FD4052419302D0E0
:1042B000A9F7EACFB4E0A695979587957795679586
:1042C000BA95C9F700976105710508959B01AC0186
:1042D0000A2E06945795479537952795BA95C9F7AD
:1042E000620F731F841F951FA01D08952F923F9288
:1042F0004F925F926F927F928F929F92AF92BF92F6
:10430000CF92DF92EF92FF920F931F93CF93DF93A1
:10431000CDB7DEB7CA1BDB0B0FB6F894DEBF0FBEFE
:10432000CDBF09942A88398848885F846E847D844B
:104330008C849B84AA84B984C884DF80EE80FD804D
:104340000C811B81AA81B981CE0FD11D0FB6F894C3
:10435000DEBF0FBECDBFED0108950E94C1210C94B8
:10436000A2220E949B2258F00E94942240F029F43D
:104370005F3F29F00C948B2251110C94D6220C949F
:1043800091220E94B32268F39923B1F3552391F34C
:10439000951B550BBB27AA2762177307840738F0B4
:1043A0009F5F5F4F220F331F441FAA1FA9F335D011
:1043B0000E2E3AF0E0E832D091505040E695001CC5
:1043C000CAF72BD0FE2F29D0660F771F881FBB1F7F
:1043D000261737074807AB07B0E809F0BB0B802D5D
:1043E000BF01FF2793585F4F3AF09E3F510578F089
:1043F0000C948B220C94D6225F3FE4F3983ED4F3C6
:10440000869577956795B795F7959F5FC9F7880F5C
:10441000911D9695879597F90895E1E0660F771FAE
:10442000881FBB1F621773078407BA0720F0621B3F
:10443000730B840BBA0BEE1F88F7E09508950E946A
:10444000BB2288F09F5798F0B92F9927B751B0F049
:10445000E1F0660F771F881F991F1AF0BA95C9F708
:1044600014C0B13091F00E94D522B1E008950C94AF
:10447000D522672F782F8827B85F39F0B93FCCF362
:10448000869577956795B395D9F73EF49095809585
:10449000709561957F4F8F4F9F4F0895E89409C0A5
:1044A00097FB3EF490958095709561957F4F8F4F67
:1044B0009F4F9923A9F0F92F96E9BB279395F6957D
:1044C000879577956795B795F111F8CFFAF4BB0FFB
:1044D00011F460FF1BC06F5F7F4F8F4F9F4F16C05F
:1044E000882311F096E911C0772321F09EE8872FE9
:1044F000762F05C0662371F096E8862F70E060E0A5
:104500002AF09A95660F771F881FDAF7880F96951D
:10451000879597F9089597F99F6780E870E060E0C4
:1045200008959FEF80EC089500240A94161617064C
:1045300018060906089500240A9412161306140694
:1045400005060895092E0394000C11F4882352F0F7
:10455000BB0F40F4BF2B11F460FF04C06F5F7F4FAF
:104560008F4F9F4F089557FD9058440F551F59F096
:104570005F3F71F04795880F97FB991F61F09F3F50
:1045800079F087950895121613061406551FF2CF79
:104590004695F1DF08C0161617061806991FF1CFC9
:1045A00086957105610508940895E894BB276627F0
:1045B0007727CB0197F908950E94EF220C94A2224D
:1045C0000E94942238F00E949B2220F0952311F043
:1045D0000C948B220C94912211240C94D6220E94CC
:1045E000B32270F3959FC1F3950F50E0551F629F62
:1045F000F001729FBB27F00DB11D639FAA27F00D3C
:10460000B11DAA1F649F6627B00DA11D661F829F62
:104610002227B00DA11D621F739FB00DA11D621F47
:10462000839FA00D611D221F749F3327A00D611D64
:10463000231F849F600D211D822F762F6A2F112446
:104640009F5750409AF0F1F088234AF0EE0FFF1F79
:10465000BB1F661F771F881F91505040A9F79E3FD0
:10466000510580F00C948B220C94D6225F3FE4F32A
:10467000983ED4F3869577956795B795F795E79526
:104680009F5FC1F7FE2B880F911D9695879597F92F
:104690000895991B79E004C0991F961708F0961B9E
:1046A000881F7A95C9F78095089597FB072E16F411
:1046B000009407D077FD09D00E94692307FC05D03C
:1046C0003EF4909581959F4F0895709561957F4F29
:1046D0000895AA1BBB1B51E107C0AA1FBB1FA61749
:1046E000B70710F0A61BB70B881F991F5A95A9F79B
:1046F00080959095BC01CD010895EE0FFF1F0590A8
:10470000F491E02D09940F931F93CF93DF938230A0
:10471000910510F482E090E0E091EB04F091EC045C
:1047200030E020E0B0E0A0E0309799F421153105A9
:1047300009F44AC0281B390B24303105D8F58A8189
:104740009B816115710589F1FB0193838283FE01D1
:1047500011C0408151810281138148175907E0F04F
:104760004817590799F4109761F012960C93129715
:1047700013961C933296CF01DF91CF911F910F9129
:1047800008950093EB041093EC04F4CF2115310548
:1047900051F04217530738F0A901DB019A01BD011E
:1047A000DF01F801C1CFEF01F9CF9093EC048093C2
:1047B000EB04CDCFFE01E20FF31F819391932250C2
:1047C000310939832883D7CF2091E9043091EA0455
:1047D000232B41F420915D0330915E033093EA0472
:1047E0002093E90420915B0330915C03211531058E
:1047F00041F42DB73EB740915F0350916003241BF5
:10480000350BE091E904F091EA04E217F307A0F414
:104810002E1B3F0B2817390778F0AC014E5F5F4F16
:104820002417350748F04E0F5F1F5093EA0440935A
:10483000E904819391939FCFF0E0E0E09CCFCF9388
:10484000DF930097E9F0FC01329713821282A09166
:10485000EB04B091EC04ED0130E020E01097A1F4FE
:1048600020813181820F931F2091E9043091EA0465
:104870002817390709F061C0F093EA04E093E904CE
:10488000DF91CF910895EA01CE17DF07E8F54A815D
:104890005B819E0141155105B1F7E901FB83EA8374
:1048A00049915991C40FD51FEC17FD0761F4808120
:1048B00091810296840F951FE901998388838281F3
:1048C00093819B838A83F0E0E0E012968D919C9126
:1048D00013970097B9F52D913C911197CD01029650
:1048E000820F931F2091E9043091EA0428173907B9
:1048F00039F6309751F51092EC041092EB04B09316
:10490000EA04A093E904BCCFD383C28340815181E0
:10491000840F951FC817D90761F44E5F5F4F8881D8
:104920009981480F591F518340838A819B819383CA
:1049300082832115310509F0B0CFF093EC04E093A8
:10494000EB049ECFFD01DC01C0CF13821282D7CFD2
:1049500081E090E0F8940C94DD24AEE0B0E0E3EB6D
:10496000F4E20C9484210D891E898F89988D26E0AC
:104970002C831A83098397FF02C080E090E8019797
:104980009E838D83AE01455E5F4F698D7A8DCE012A
:1049900001960E94F81E4D815E8157FD0AC02F814D
:1049A0003885421753070CF49A01020F131FF801C0
:0E49B00010822E96E4E00C94A021F894FFCF24
:1049BE000271008E10000000000000026D006E10EB
:1049CE00000000000000056800000000000000006C
:1049DE000000A3000000000000000000019B00008A
:1049EE000000010000000004910000000000000023
:1049FE00D60F0388000000000016100000037C0094
:104A0E0000000000E90F00000574004610000000D1
:104A1E000000000000000000000000000000000088
:104A2E000000000000000000000000000000000078
:104A3E00000000000000000000C0E0F0F8FCFCFEEA
:104A4E00FFFCE0000000000000000000000000007D
:104A5E000000000000000000000000000000000048
:104A6E000000000000000000000000000000000038
:104A7E000000000000000000F8F8F8F8F8F8F8F868
:104A8E00F8F8F8F8F0F0E0E0C080C0FCFFFFFFFFA0
:104A9E007F3F7FFFFFFFFFFF0000000000000000D0
:104AAE0000000000000000000000000000000000F8
:104ABE0000000000000000000000000000000000E8
:104ACE00000000000000000000000000000F1F3F6B
:104ADE007FFFFFFFFFFFFFFFFFE7C7C7878F9F9F88
:104AEE00FFFFFFC1C0E0FCFFFFFFFFFFFCFCFCFC73
:104AFE00FEFEFEFCFCF8F8F0E0C0C0000000000076
:104B0E000000000000000000000000000000000097
:104B1E000000000000000000000000000000000087
:104B2E000000000080C0E0F1FBFFFFFFFFFF7F1FD2
:104B3E000F0F87E7FFFFFF1F1F3FF9F8F8F8F8F890
:104B4E00F8FDFFFFFFFFFFFFFFFFFF7F3F0F070196
:104B5E000000000000000000000000000000000047
:104B6E000000000000000000000000000000000037
:104B7E00000000000000F0FEFFFFFFFFFFFFFFFF41
:104B8E00FFFFFE7E3F3F0F1FFFFFFFFCF0E0F1FF38
:104B9E00FFFFFFFFFCF00101010101010101000017
:104BAE0000000000000000000000000000000000F7
:104BBE0000000000000000000000000000000000E7
:104BCE0000000000000000000000030303030303C5
:104BDE0003030101010100000000000000030F1F8C
:104BEE003F7F7FFFFFFFFF7F7F1F0300000000005E
:104BFE0000000000000000000000000000000000A7
:104C0E0000000000000000000000000000ED048025
:104C1E000000000000FD035D038A034A04BB0399F4
:104C2E0003AD030000000035095D03AF10AE10A206
:104C3E00065C03D60E7B0D130E070EDD0E5C03FB1A
:104C4E0006FA06420D090DC40CA70C2F0C070A0D0F
:024C5E000A004A
:00000001FF
